{
  "_format": "hh-sol-artifact-1",
  "contractName": "Airdrop",
  "sourceName": "contracts/Airdrop.sol",
  "abi": [
    {
      "inputs": [
        {
          "internalType": "contract IERC20",
          "name": "_airdropToken",
          "type": "address"
        },
        {
          "internalType": "uint256",
          "name": "_amountPerRedemption",
          "type": "uint256"
        },
        {
          "internalType": "contract IPlonkVerifier",
          "name": "_verifier",
          "type": "address"
        },
        {
          "internalType": "bytes32",
          "name": "_root",
          "type": "bytes32"
        }
      ],
      "stateMutability": "nonpayable",
      "type": "constructor"
    },
    {
      "anonymous": false,
      "inputs": [
        {
          "indexed": true,
          "internalType": "address",
          "name": "previousOwner",
          "type": "address"
        },
        {
          "indexed": true,
          "internalType": "address",
          "name": "newOwner",
          "type": "address"
        }
      ],
      "name": "OwnershipTransferred",
      "type": "event"
    },
    {
      "inputs": [],
      "name": "airdropToken",
      "outputs": [
        {
          "internalType": "contract IERC20",
          "name": "",
          "type": "address"
        }
      ],
      "stateMutability": "view",
      "type": "function"
    },
    {
      "inputs": [],
      "name": "amountPerRedemption",
      "outputs": [
        {
          "internalType": "uint256",
          "name": "",
          "type": "uint256"
        }
      ],
      "stateMutability": "view",
      "type": "function"
    },
    {
      "inputs": [
        {
          "internalType": "bytes",
          "name": "proof",
          "type": "bytes"
        },
        {
          "internalType": "bytes32",
          "name": "nullifierHash",
          "type": "bytes32"
        }
      ],
      "name": "collectAirdrop",
      "outputs": [],
      "stateMutability": "nonpayable",
      "type": "function"
    },
    {
      "inputs": [
        {
          "internalType": "bytes32",
          "name": "",
          "type": "bytes32"
        }
      ],
      "name": "nullifierSpent",
      "outputs": [
        {
          "internalType": "bool",
          "name": "",
          "type": "bool"
        }
      ],
      "stateMutability": "view",
      "type": "function"
    },
    {
      "inputs": [],
      "name": "owner",
      "outputs": [
        {
          "internalType": "address",
          "name": "",
          "type": "address"
        }
      ],
      "stateMutability": "view",
      "type": "function"
    },
    {
      "inputs": [],
      "name": "renounceOwnership",
      "outputs": [],
      "stateMutability": "nonpayable",
      "type": "function"
    },
    {
      "inputs": [],
      "name": "root",
      "outputs": [
        {
          "internalType": "bytes32",
          "name": "",
          "type": "bytes32"
        }
      ],
      "stateMutability": "view",
      "type": "function"
    },
    {
      "inputs": [
        {
          "internalType": "address",
          "name": "newOwner",
          "type": "address"
        }
      ],
      "name": "transferOwnership",
      "outputs": [],
      "stateMutability": "nonpayable",
      "type": "function"
    },
    {
      "inputs": [
        {
          "internalType": "bytes32",
          "name": "newRoot",
          "type": "bytes32"
        }
      ],
      "name": "updateRoot",
      "outputs": [],
      "stateMutability": "nonpayable",
      "type": "function"
    }
  ],
  "bytecode": "0x60806040523480156200001157600080fd5b5060405162001385380380620013858339818101604052810190620000379190620002f6565b620000576200004b620000f160201b60201c565b620000f960201b60201c565b83600160006101000a81548173ffffffffffffffffffffffffffffffffffffffff021916908373ffffffffffffffffffffffffffffffffffffffff1602179055508260028190555081600360006101000a81548173ffffffffffffffffffffffffffffffffffffffff021916908373ffffffffffffffffffffffffffffffffffffffff160217905550806004819055505050505062000368565b600033905090565b60008060009054906101000a900473ffffffffffffffffffffffffffffffffffffffff169050816000806101000a81548173ffffffffffffffffffffffffffffffffffffffff021916908373ffffffffffffffffffffffffffffffffffffffff1602179055508173ffffffffffffffffffffffffffffffffffffffff168173ffffffffffffffffffffffffffffffffffffffff167f8be0079c531659141344cd1fd0a4f28419497f9722a3daafe3b4186f6b6457e060405160405180910390a35050565b600080fd5b600073ffffffffffffffffffffffffffffffffffffffff82169050919050565b6000620001ef82620001c2565b9050919050565b60006200020382620001e2565b9050919050565b6200021581620001f6565b81146200022157600080fd5b50565b60008151905062000235816200020a565b92915050565b6000819050919050565b62000250816200023b565b81146200025c57600080fd5b50565b600081519050620002708162000245565b92915050565b60006200028382620001e2565b9050919050565b620002958162000276565b8114620002a157600080fd5b50565b600081519050620002b5816200028a565b92915050565b6000819050919050565b620002d081620002bb565b8114620002dc57600080fd5b50565b600081519050620002f081620002c5565b92915050565b60008060008060808587031215620003135762000312620001bd565b5b6000620003238782880162000224565b945050602062000336878288016200025f565b93505060406200034987828801620002a4565b92505060606200035c87828801620002df565b91505092959194509250565b61100d80620003786000396000f3fe608060405234801561001057600080fd5b50600436106100935760003560e01c8063715018a611610066578063715018a61461011e5780637f0d7159146101285780638da5cb5b14610146578063ebf0c71714610164578063f2fde38b1461018257610093565b8063213e0b171461009857806321ff9970146100b457806338c86911146100d05780634d06068a14610100575b600080fd5b6100b260048036038101906100ad91906108d9565b61019e565b005b6100ce60048036038101906100c99190610939565b6104e7565b005b6100ea60048036038101906100e59190610939565b61056d565b6040516100f79190610981565b60405180910390f35b61010861058d565b6040516101159190610a1b565b60405180910390f35b6101266105b3565b005b61013061063b565b60405161013d9190610a4f565b60405180910390f35b61014e610641565b60405161015b9190610a8b565b60405180910390f35b61016c61066a565b6040516101799190610ab5565b60405180910390f35b61019c60048036038101906101979190610afc565b610670565b005b7f30644e72e131a029b85045b68181585d2833e84879b9709143e1f593f00000018160001c10610203576040517f08c379a00000000000000000000000000000000000000000000000000000000081526004016101fa90610bac565b60405180910390fd5b6005600082815260200190815260200160002060009054906101000a900460ff1615610264576040517f08c379a000000000000000000000000000000000000000000000000000000000815260040161025b90610c18565b60405180910390fd5b6000600367ffffffffffffffff81111561028157610280610c38565b5b6040519080825280602002602001820160405280156102af5781602001602082028036833780820191505090505b50905060045460001c816000815181106102cc576102cb610c67565b5b6020026020010181815250508160001c816001815181106102f0576102ef610c67565b5b6020026020010181815250503373ffffffffffffffffffffffffffffffffffffffff168160028151811061032757610326610c67565b5b602002602001018181525050600360009054906101000a900473ffffffffffffffffffffffffffffffffffffffff1673ffffffffffffffffffffffffffffffffffffffff16631e8e1e138585846040518463ffffffff1660e01b815260040161039293929190610db2565b602060405180830381865afa1580156103af573d6000803e3d6000fd5b505050506040513d601f19601f820116820180604052508101906103d39190610e17565b610412576040517f08c379a000000000000000000000000000000000000000000000000000000000815260040161040990610e90565b60405180910390fd5b60016005600084815260200190815260200160002060006101000a81548160ff021916908315150217905550600160009054906101000a900473ffffffffffffffffffffffffffffffffffffffff1673ffffffffffffffffffffffffffffffffffffffff1663a9059cbb336002546040518363ffffffff1660e01b815260040161049d929190610eb0565b6020604051808303816000875af11580156104bc573d6000803e3d6000fd5b505050506040513d601f19601f820116820180604052508101906104e09190610e17565b5050505050565b6104ef610768565b73ffffffffffffffffffffffffffffffffffffffff1661050d610641565b73ffffffffffffffffffffffffffffffffffffffff1614610563576040517f08c379a000000000000000000000000000000000000000000000000000000000815260040161055a90610f25565b60405180910390fd5b8060048190555050565b60056020528060005260406000206000915054906101000a900460ff1681565b600160009054906101000a900473ffffffffffffffffffffffffffffffffffffffff1681565b6105bb610768565b73ffffffffffffffffffffffffffffffffffffffff166105d9610641565b73ffffffffffffffffffffffffffffffffffffffff161461062f576040517f08c379a000000000000000000000000000000000000000000000000000000000815260040161062690610f25565b60405180910390fd5b6106396000610770565b565b60025481565b60008060009054906101000a900473ffffffffffffffffffffffffffffffffffffffff16905090565b60045481565b610678610768565b73ffffffffffffffffffffffffffffffffffffffff16610696610641565b73ffffffffffffffffffffffffffffffffffffffff16146106ec576040517f08c379a00000000000000000000000000000000000000000000000000000000081526004016106e390610f25565b60405180910390fd5b600073ffffffffffffffffffffffffffffffffffffffff168173ffffffffffffffffffffffffffffffffffffffff16141561075c576040517f08c379a000000000000000000000000000000000000000000000000000000000815260040161075390610fb7565b60405180910390fd5b61076581610770565b50565b600033905090565b60008060009054906101000a900473ffffffffffffffffffffffffffffffffffffffff169050816000806101000a81548173ffffffffffffffffffffffffffffffffffffffff021916908373ffffffffffffffffffffffffffffffffffffffff1602179055508173ffffffffffffffffffffffffffffffffffffffff168173ffffffffffffffffffffffffffffffffffffffff167f8be0079c531659141344cd1fd0a4f28419497f9722a3daafe3b4186f6b6457e060405160405180910390a35050565b600080fd5b600080fd5b600080fd5b600080fd5b600080fd5b60008083601f8401126108635761086261083e565b5b8235905067ffffffffffffffff8111156108805761087f610843565b5b60208301915083600182028301111561089c5761089b610848565b5b9250929050565b6000819050919050565b6108b6816108a3565b81146108c157600080fd5b50565b6000813590506108d3816108ad565b92915050565b6000806000604084860312156108f2576108f1610834565b5b600084013567ffffffffffffffff8111156109105761090f610839565b5b61091c8682870161084d565b9350935050602061092f868287016108c4565b9150509250925092565b60006020828403121561094f5761094e610834565b5b600061095d848285016108c4565b91505092915050565b60008115159050919050565b61097b81610966565b82525050565b60006020820190506109966000830184610972565b92915050565b600073ffffffffffffffffffffffffffffffffffffffff82169050919050565b6000819050919050565b60006109e16109dc6109d78461099c565b6109bc565b61099c565b9050919050565b60006109f3826109c6565b9050919050565b6000610a05826109e8565b9050919050565b610a15816109fa565b82525050565b6000602082019050610a306000830184610a0c565b92915050565b6000819050919050565b610a4981610a36565b82525050565b6000602082019050610a646000830184610a40565b92915050565b6000610a758261099c565b9050919050565b610a8581610a6a565b82525050565b6000602082019050610aa06000830184610a7c565b92915050565b610aaf816108a3565b82525050565b6000602082019050610aca6000830184610aa6565b92915050565b610ad981610a6a565b8114610ae457600080fd5b50565b600081359050610af681610ad0565b92915050565b600060208284031215610b1257610b11610834565b5b6000610b2084828501610ae7565b91505092915050565b600082825260208201905092915050565b7f4e756c6c6966696572206973206e6f742077697468696e20746865206669656c60008201527f6400000000000000000000000000000000000000000000000000000000000000602082015250565b6000610b96602183610b29565b9150610ba182610b3a565b604082019050919050565b60006020820190508181036000830152610bc581610b89565b9050919050565b7f41697264726f7020616c72656164792072656465656d65640000000000000000600082015250565b6000610c02601883610b29565b9150610c0d82610bcc565b602082019050919050565b60006020820190508181036000830152610c3181610bf5565b9050919050565b7f4e487b7100000000000000000000000000000000000000000000000000000000600052604160045260246000fd5b7f4e487b7100000000000000000000000000000000000000000000000000000000600052603260045260246000fd5b600082825260208201905092915050565b82818337600083830152505050565b6000601f19601f8301169050919050565b6000610cd38385610c96565b9350610ce0838584610ca7565b610ce983610cb6565b840190509392505050565b600081519050919050565b600082825260208201905092915050565b6000819050602082019050919050565b610d2981610a36565b82525050565b6000610d3b8383610d20565b60208301905092915050565b6000602082019050919050565b6000610d5f82610cf4565b610d698185610cff565b9350610d7483610d10565b8060005b83811015610da5578151610d8c8882610d2f565b9750610d9783610d47565b925050600181019050610d78565b5085935050505092915050565b60006040820190508181036000830152610dcd818587610cc7565b90508181036020830152610de18184610d54565b9050949350505050565b610df481610966565b8114610dff57600080fd5b50565b600081519050610e1181610deb565b92915050565b600060208284031215610e2d57610e2c610834565b5b6000610e3b84828501610e02565b91505092915050565b7f50726f6f6620766572696669636174696f6e206661696c656400000000000000600082015250565b6000610e7a601983610b29565b9150610e8582610e44565b602082019050919050565b60006020820190508181036000830152610ea981610e6d565b9050919050565b6000604082019050610ec56000830185610a7c565b610ed26020830184610a40565b9392505050565b7f4f776e61626c653a2063616c6c6572206973206e6f7420746865206f776e6572600082015250565b6000610f0f602083610b29565b9150610f1a82610ed9565b602082019050919050565b60006020820190508181036000830152610f3e81610f02565b9050919050565b7f4f776e61626c653a206e6577206f776e657220697320746865207a65726f206160008201527f6464726573730000000000000000000000000000000000000000000000000000602082015250565b6000610fa1602683610b29565b9150610fac82610f45565b604082019050919050565b60006020820190508181036000830152610fd081610f94565b905091905056fea2646970667358221220735159a3effe2c5f036fa6a835b99059f1dc171fd55a96ae608a81603dd3a3e964736f6c634300080b0033",
  "linkReferences": {},
  "deployedLinkReferences": {}
}