{
  "_format": "hh-sol-artifact-1",
  "contractName": "PrivateLottery",
  "sourceName": "contracts/PrivateLottery.sol",
  "abi": [
    {
      "anonymous": false,
      "inputs": [
        {
          "indexed": true,
          "internalType": "address",
          "name": "previousOwner",
          "type": "address"
        },
        {
          "indexed": true,
          "internalType": "address",
          "name": "newOwner",
          "type": "address"
        }
      ],
      "name": "OwnershipTransferred",
      "type": "event"
    },
    {
      "inputs": [
        {
          "internalType": "uint256",
          "name": "",
          "type": "uint256"
        }
      ],
      "name": "Eligible",
      "outputs": [
        {
          "internalType": "bool",
          "name": "",
          "type": "bool"
        }
      ],
      "stateMutability": "view",
      "type": "function"
    },
    {
      "inputs": [
        {
          "internalType": "uint256",
          "name": "",
          "type": "uint256"
        }
      ],
      "name": "_randomNumbers",
      "outputs": [
        {
          "internalType": "uint256",
          "name": "",
          "type": "uint256"
        }
      ],
      "stateMutability": "view",
      "type": "function"
    },
    {
      "inputs": [],
      "name": "airdrop",
      "outputs": [
        {
          "internalType": "contract IERC721NFT",
          "name": "",
          "type": "address"
        }
      ],
      "stateMutability": "view",
      "type": "function"
    },
    {
      "inputs": [],
      "name": "airdrop_erc",
      "outputs": [
        {
          "internalType": "contract IERC20",
          "name": "",
          "type": "address"
        }
      ],
      "stateMutability": "view",
      "type": "function"
    },
    {
      "inputs": [],
      "name": "amount",
      "outputs": [
        {
          "internalType": "uint256",
          "name": "",
          "type": "uint256"
        }
      ],
      "stateMutability": "view",
      "type": "function"
    },
    {
      "inputs": [],
      "name": "chooseRandomIndex",
      "outputs": [
        {
          "internalType": "uint256",
          "name": "",
          "type": "uint256"
        }
      ],
      "stateMutability": "view",
      "type": "function"
    },
    {
      "inputs": [
        {
          "internalType": "uint256",
          "name": "commitment",
          "type": "uint256"
        },
        {
          "internalType": "bytes",
          "name": "proof",
          "type": "bytes"
        },
        {
          "internalType": "bytes32",
          "name": "nullifierHash",
          "type": "bytes32"
        }
      ],
      "name": "collectAirdrop",
      "outputs": [],
      "stateMutability": "nonpayable",
      "type": "function"
    },
    {
      "inputs": [],
      "name": "getAllCommitments",
      "outputs": [
        {
          "internalType": "uint256[]",
          "name": "",
          "type": "uint256[]"
        }
      ],
      "stateMutability": "view",
      "type": "function"
    },
    {
      "inputs": [
        {
          "internalType": "uint256",
          "name": "_commitment",
          "type": "uint256"
        }
      ],
      "name": "getEligible",
      "outputs": [
        {
          "internalType": "bool",
          "name": "",
          "type": "bool"
        }
      ],
      "stateMutability": "view",
      "type": "function"
    },
    {
      "inputs": [],
      "name": "getRandomCommitment",
      "outputs": [
        {
          "internalType": "uint256[]",
          "name": "",
          "type": "uint256[]"
        }
      ],
      "stateMutability": "view",
      "type": "function"
    },
    {
      "inputs": [],
      "name": "getRandomIndexes",
      "outputs": [
        {
          "internalType": "uint256[]",
          "name": "",
          "type": "uint256[]"
        }
      ],
      "stateMutability": "view",
      "type": "function"
    },
    {
      "inputs": [
        {
          "internalType": "contract IERC20",
          "name": "_airdrop_erc",
          "type": "address"
        },
        {
          "internalType": "uint256",
          "name": "_amount",
          "type": "uint256"
        },
        {
          "internalType": "contract IERC721NFT",
          "name": "_airdrop",
          "type": "address"
        },
        {
          "internalType": "contract IPlonkVerifier",
          "name": "_verifier",
          "type": "address"
        },
        {
          "internalType": "bytes32",
          "name": "_root",
          "type": "bytes32"
        },
        {
          "internalType": "uint256[]",
          "name": "_commitments",
          "type": "uint256[]"
        }
      ],
      "name": "initialize",
      "outputs": [],
      "stateMutability": "nonpayable",
      "type": "function"
    },
    {
      "inputs": [],
      "name": "nextTokenIdToBeAirdropped",
      "outputs": [
        {
          "internalType": "uint256",
          "name": "",
          "type": "uint256"
        }
      ],
      "stateMutability": "view",
      "type": "function"
    },
    {
      "inputs": [
        {
          "internalType": "bytes32",
          "name": "",
          "type": "bytes32"
        }
      ],
      "name": "nullifierSpent",
      "outputs": [
        {
          "internalType": "bool",
          "name": "",
          "type": "bool"
        }
      ],
      "stateMutability": "view",
      "type": "function"
    },
    {
      "inputs": [
        {
          "internalType": "address",
          "name": "",
          "type": "address"
        },
        {
          "internalType": "address",
          "name": "",
          "type": "address"
        },
        {
          "internalType": "uint256",
          "name": "",
          "type": "uint256"
        },
        {
          "internalType": "bytes",
          "name": "",
          "type": "bytes"
        }
      ],
      "name": "onERC721Received",
      "outputs": [
        {
          "internalType": "bytes4",
          "name": "",
          "type": "bytes4"
        }
      ],
      "stateMutability": "nonpayable",
      "type": "function"
    },
    {
      "inputs": [],
      "name": "owner",
      "outputs": [
        {
          "internalType": "address",
          "name": "",
          "type": "address"
        }
      ],
      "stateMutability": "view",
      "type": "function"
    },
    {
      "inputs": [],
      "name": "renounceOwnership",
      "outputs": [],
      "stateMutability": "nonpayable",
      "type": "function"
    },
    {
      "inputs": [],
      "name": "root",
      "outputs": [
        {
          "internalType": "bytes32",
          "name": "",
          "type": "bytes32"
        }
      ],
      "stateMutability": "view",
      "type": "function"
    },
    {
      "inputs": [
        {
          "internalType": "uint256",
          "name": "_commitment",
          "type": "uint256"
        }
      ],
      "name": "setEligible",
      "outputs": [],
      "stateMutability": "nonpayable",
      "type": "function"
    },
    {
      "inputs": [
        {
          "internalType": "uint256",
          "name": "quantity",
          "type": "uint256"
        },
        {
          "internalType": "uint256",
          "name": "initial",
          "type": "uint256"
        }
      ],
      "name": "setInitialTokenId",
      "outputs": [
        {
          "internalType": "uint256",
          "name": "",
          "type": "uint256"
        }
      ],
      "stateMutability": "nonpayable",
      "type": "function"
    },
    {
      "inputs": [],
      "name": "setRandomCommitment",
      "outputs": [
        {
          "internalType": "uint256[]",
          "name": "",
          "type": "uint256[]"
        }
      ],
      "stateMutability": "nonpayable",
      "type": "function"
    },
    {
      "inputs": [],
      "name": "setRandomIndexes",
      "outputs": [
        {
          "internalType": "uint256[]",
          "name": "",
          "type": "uint256[]"
        }
      ],
      "stateMutability": "nonpayable",
      "type": "function"
    },
    {
      "inputs": [
        {
          "internalType": "address",
          "name": "newOwner",
          "type": "address"
        }
      ],
      "name": "transferOwnership",
      "outputs": [],
      "stateMutability": "nonpayable",
      "type": "function"
    }
  ],
  "bytecode": "0x608060405234801561001057600080fd5b5061002d61002261003260201b60201c565b61003a60201b60201c565b6100fe565b600033905090565b60008060009054906101000a900473ffffffffffffffffffffffffffffffffffffffff169050816000806101000a81548173ffffffffffffffffffffffffffffffffffffffff021916908373ffffffffffffffffffffffffffffffffffffffff1602179055508173ffffffffffffffffffffffffffffffffffffffff168173ffffffffffffffffffffffffffffffffffffffff167f8be0079c531659141344cd1fd0a4f28419497f9722a3daafe3b4186f6b6457e060405160405180910390a35050565b612132806200010e6000396000f3fe608060405234801561001057600080fd5b506004361061014d5760003560e01c806378092c9b116100c3578063c58c35371161007c578063c58c353714610392578063dd48f317146103b0578063e3650d54146103e0578063ebf0c717146103fc578063f2fde38b1461041a578063feb12107146104365761014d565b806378092c9b146102ba57806379c6cba6146102ea5780638c55af1d1461031a5780638da5cb5b14610338578063a79b9fb314610356578063aa8c217c146103745761014d565b80633b0ea378116101155780633b0ea3781461020a578063430ca7ab1461023a578063540d393d1461025657806356271245146102745780637050796e14610292578063715018a6146102b05761014d565b8063150b7a02146101525780631c21dbaf146101825780632c0ee3c41461019e5780633884d635146101bc57806338c86911146101da575b600080fd5b61016c600480360381019061016791906113fc565b610454565b60405161017991906114ba565b60405180910390f35b61019c60048036038101906101979190611625565b610468565b005b6101a6610639565b6040516101b39190611792565b60405180910390f35b6101c4610691565b6040516101d19190611813565b60405180910390f35b6101f460048036038101906101ef919061182e565b6106b7565b6040516102019190611876565b60405180910390f35b610224600480360381019061021f9190611891565b6106d7565b60405161023191906118e0565b60405180910390f35b610254600480360381019061024f9190611951565b610753565b005b61025e610ae5565b60405161026b91906118e0565b60405180910390f35b61027c610b09565b6040516102899190611792565b60405180910390f35b61029a610c9e565b6040516102a791906118e0565b60405180910390f35b6102b8610ca4565b005b6102d460048036038101906102cf91906119c5565b610d2c565b6040516102e19190611876565b60405180910390f35b61030460048036038101906102ff91906119c5565b610d4c565b60405161031191906118e0565b60405180910390f35b610322610d70565b60405161032f9190611792565b60405180910390f35b610340610e15565b60405161034d9190611a01565b60405180910390f35b61035e610e3e565b60405161036b9190611792565b60405180910390f35b61037c610e96565b60405161038991906118e0565b60405180910390f35b61039a610e9c565b6040516103a79190611792565b60405180910390f35b6103ca60048036038101906103c591906119c5565b610ef4565b6040516103d79190611876565b60405180910390f35b6103fa60048036038101906103f591906119c5565b610f1e565b005b610404610f4d565b6040516104119190611a2b565b60405180910390f35b610434600480360381019061042f9190611a46565b610f53565b005b61043e61104b565b60405161044b9190611a94565b60405180910390f35b600063150b7a0260e01b9050949350505050565b600060159054906101000a900460ff1661049257600060149054906101000a900460ff161561049b565b61049a611071565b5b6104da576040517f08c379a00000000000000000000000000000000000000000000000000000000081526004016104d190611b32565b60405180910390fd5b60008060159054906101000a900460ff16159050801561052b576001600060156101000a81548160ff0219169083151502179055506001600060146101000a81548160ff0219169083151502179055505b87600160006101000a81548173ffffffffffffffffffffffffffffffffffffffff021916908373ffffffffffffffffffffffffffffffffffffffff1602179055508660028190555085600360006101000a81548173ffffffffffffffffffffffffffffffffffffffff021916908373ffffffffffffffffffffffffffffffffffffffff16021790555084600460006101000a81548173ffffffffffffffffffffffffffffffffffffffff021916908373ffffffffffffffffffffffffffffffffffffffff1602179055508360058190555082826006919061060d9291906111a4565b50801561062f5760008060156101000a81548160ff0219169083151502179055505b5050505050505050565b6060600680548060200260200160405190810160405280929190818152602001828054801561068757602002820191906000526020600020905b815481526020019060010190808311610673575b5050505050905090565b600360009054906101000a900473ffffffffffffffffffffffffffffffffffffffff1681565b600a6020528060005260406000206000915054906101000a900460ff1681565b6000600360009054906101000a900473ffffffffffffffffffffffffffffffffffffffff1673ffffffffffffffffffffffffffffffffffffffff163373ffffffffffffffffffffffffffffffffffffffff161461073357600080fd5b826009541061074157600080fd5b81600981905550600954905092915050565b61075c84610ef4565b61079b576040517f08c379a000000000000000000000000000000000000000000000000000000000815260040161079290611bc4565b60405180910390fd5b7f30644e72e131a029b85045b68181585d2833e84879b9709143e1f593f00000018160001c10610800576040517f08c379a00000000000000000000000000000000000000000000000000000000081526004016107f790611c56565b60405180910390fd5b600a600082815260200190815260200160002060009054906101000a900460ff1615610861576040517f08c379a000000000000000000000000000000000000000000000000000000000815260040161085890611cc2565b60405180910390fd5b6000600367ffffffffffffffff81111561087e5761087d6112d1565b5b6040519080825280602002602001820160405280156108ac5781602001602082028036833780820191505090505b50905060055460001c816000815181106108c9576108c8611ce2565b5b6020026020010181815250508160001c816001815181106108ed576108ec611ce2565b5b6020026020010181815250503373ffffffffffffffffffffffffffffffffffffffff168160028151811061092457610923611ce2565b5b602002602001018181525050600460009054906101000a900473ffffffffffffffffffffffffffffffffffffffff1673ffffffffffffffffffffffffffffffffffffffff16631e8e1e138585846040518463ffffffff1660e01b815260040161098f93929190611d4f565b602060405180830381865afa1580156109ac573d6000803e3d6000fd5b505050506040513d601f19601f820116820180604052508101906109d09190611db4565b610a0f576040517f08c379a0000000000000000000000000000000000000000000000000000000008152600401610a0690611e2d565b60405180910390fd5b6001600a600084815260200190815260200160002060006101000a81548160ff021916908315150217905550600160009054906101000a900473ffffffffffffffffffffffffffffffffffffffff1673ffffffffffffffffffffffffffffffffffffffff1663a9059cbb336002546040518363ffffffff1660e01b8152600401610a9a929190611e4d565b6020604051808303816000875af1158015610ab9573d6000803e3d6000fd5b505050506040513d601f19601f82011682018060405250810190610add9190611db4565b505050505050565b600080600880549050610af6611082565b610b009190611ea5565b90508091505090565b606060005b600680549050811015610c47576000610b25610ae5565b9050600060088281548110610b3d57610b3c611ce2565b5b9060005260206000200154905060086001600880549050610b5e9190611f05565b81548110610b6f57610b6e611ce2565b5b906000526020600020015460088381548110610b8e57610b8d611ce2565b5b90600052602060002001819055506008805480610bae57610bad611f39565b5b60019003818190600052602060002001600090559055610beb60068281548110610bdb57610bda611ce2565b5b9060005260206000200154610f1e565b600760068281548110610c0157610c00611ce2565b5b9060005260206000200154908060018154018082558091505060019003906000526020600020016000909190919091505550508080610c3f90611f68565b915050610b0e565b506007805480602002602001604051908101604052809291908181526020018280548015610c9457602002820191906000526020600020905b815481526020019060010190808311610c80575b5050505050905090565b60095481565b610cac6110b5565b73ffffffffffffffffffffffffffffffffffffffff16610cca610e15565b73ffffffffffffffffffffffffffffffffffffffff1614610d20576040517f08c379a0000000000000000000000000000000000000000000000000000000008152600401610d1790611ffd565b60405180910390fd5b610d2a60006110bd565b565b600b6020528060005260406000206000915054906101000a900460ff1681565b60088181548110610d5c57600080fd5b906000526020600020016000915090505481565b606060005b600680549050811015610dbe5760088190806001815401808255809150506001900390600052602060002001600090919091909150558080610db690611f68565b915050610d75565b506008805480602002602001604051908101604052809291908181526020018280548015610e0b57602002820191906000526020600020905b815481526020019060010190808311610df7575b5050505050905090565b60008060009054906101000a900473ffffffffffffffffffffffffffffffffffffffff16905090565b60606007805480602002602001604051908101604052809291908181526020018280548015610e8c57602002820191906000526020600020905b815481526020019060010190808311610e78575b5050505050905090565b60025481565b60606008805480602002602001604051908101604052809291908181526020018280548015610eea57602002820191906000526020600020905b815481526020019060010190808311610ed6575b5050505050905090565b6000600b600083815260200190815260200160002060009054906101000a900460ff169050919050565b6001600b600083815260200190815260200160002060006101000a81548160ff02191690831515021790555050565b60055481565b610f5b6110b5565b73ffffffffffffffffffffffffffffffffffffffff16610f79610e15565b73ffffffffffffffffffffffffffffffffffffffff1614610fcf576040517f08c379a0000000000000000000000000000000000000000000000000000000008152600401610fc690611ffd565b60405180910390fd5b600073ffffffffffffffffffffffffffffffffffffffff168173ffffffffffffffffffffffffffffffffffffffff16141561103f576040517f08c379a00000000000000000000000000000000000000000000000000000000081526004016110369061208f565b60405180910390fd5b611048816110bd565b50565b600160009054906101000a900473ffffffffffffffffffffffffffffffffffffffff1681565b600061107c30611181565b15905090565b600044426040516020016110979291906120d0565b6040516020818303038152906040528051906020012060001c905090565b600033905090565b60008060009054906101000a900473ffffffffffffffffffffffffffffffffffffffff169050816000806101000a81548173ffffffffffffffffffffffffffffffffffffffff021916908373ffffffffffffffffffffffffffffffffffffffff1602179055508173ffffffffffffffffffffffffffffffffffffffff168173ffffffffffffffffffffffffffffffffffffffff167f8be0079c531659141344cd1fd0a4f28419497f9722a3daafe3b4186f6b6457e060405160405180910390a35050565b6000808273ffffffffffffffffffffffffffffffffffffffff163b119050919050565b8280548282559060005260206000209081019282156111e0579160200282015b828111156111df5782358255916020019190600101906111c4565b5b5090506111ed91906111f1565b5090565b5b8082111561120a5760008160009055506001016111f2565b5090565b6000604051905090565b600080fd5b600080fd5b600073ffffffffffffffffffffffffffffffffffffffff82169050919050565b600061124d82611222565b9050919050565b61125d81611242565b811461126857600080fd5b50565b60008135905061127a81611254565b92915050565b6000819050919050565b61129381611280565b811461129e57600080fd5b50565b6000813590506112b08161128a565b92915050565b600080fd5b600080fd5b6000601f19601f8301169050919050565b7f4e487b7100000000000000000000000000000000000000000000000000000000600052604160045260246000fd5b611309826112c0565b810181811067ffffffffffffffff82111715611328576113276112d1565b5b80604052505050565b600061133b61120e565b90506113478282611300565b919050565b600067ffffffffffffffff821115611367576113666112d1565b5b611370826112c0565b9050602081019050919050565b82818337600083830152505050565b600061139f61139a8461134c565b611331565b9050828152602081018484840111156113bb576113ba6112bb565b5b6113c684828561137d565b509392505050565b600082601f8301126113e3576113e26112b6565b5b81356113f384826020860161138c565b91505092915050565b6000806000806080858703121561141657611415611218565b5b60006114248782880161126b565b94505060206114358782880161126b565b9350506040611446878288016112a1565b925050606085013567ffffffffffffffff8111156114675761146661121d565b5b611473878288016113ce565b91505092959194509250565b60007fffffffff0000000000000000000000000000000000000000000000000000000082169050919050565b6114b48161147f565b82525050565b60006020820190506114cf60008301846114ab565b92915050565b60006114e082611242565b9050919050565b6114f0816114d5565b81146114fb57600080fd5b50565b60008135905061150d816114e7565b92915050565b600061151e82611242565b9050919050565b61152e81611513565b811461153957600080fd5b50565b60008135905061154b81611525565b92915050565b600061155c82611242565b9050919050565b61156c81611551565b811461157757600080fd5b50565b60008135905061158981611563565b92915050565b6000819050919050565b6115a28161158f565b81146115ad57600080fd5b50565b6000813590506115bf81611599565b92915050565b600080fd5b600080fd5b60008083601f8401126115e5576115e46112b6565b5b8235905067ffffffffffffffff811115611602576116016115c5565b5b60208301915083602082028301111561161e5761161d6115ca565b5b9250929050565b600080600080600080600060c0888a03121561164457611643611218565b5b60006116528a828b016114fe565b97505060206116638a828b016112a1565b96505060406116748a828b0161153c565b95505060606116858a828b0161157a565b94505060806116968a828b016115b0565b93505060a088013567ffffffffffffffff8111156116b7576116b661121d565b5b6116c38a828b016115cf565b925092505092959891949750929550565b600081519050919050565b600082825260208201905092915050565b6000819050602082019050919050565b61170981611280565b82525050565b600061171b8383611700565b60208301905092915050565b6000602082019050919050565b600061173f826116d4565b61174981856116df565b9350611754836116f0565b8060005b8381101561178557815161176c888261170f565b975061177783611727565b925050600181019050611758565b5085935050505092915050565b600060208201905081810360008301526117ac8184611734565b905092915050565b6000819050919050565b60006117d96117d46117cf84611222565b6117b4565b611222565b9050919050565b60006117eb826117be565b9050919050565b60006117fd826117e0565b9050919050565b61180d816117f2565b82525050565b60006020820190506118286000830184611804565b92915050565b60006020828403121561184457611843611218565b5b6000611852848285016115b0565b91505092915050565b60008115159050919050565b6118708161185b565b82525050565b600060208201905061188b6000830184611867565b92915050565b600080604083850312156118a8576118a7611218565b5b60006118b6858286016112a1565b92505060206118c7858286016112a1565b9150509250929050565b6118da81611280565b82525050565b60006020820190506118f560008301846118d1565b92915050565b60008083601f840112611911576119106112b6565b5b8235905067ffffffffffffffff81111561192e5761192d6115c5565b5b60208301915083600182028301111561194a576119496115ca565b5b9250929050565b6000806000806060858703121561196b5761196a611218565b5b6000611979878288016112a1565b945050602085013567ffffffffffffffff81111561199a5761199961121d565b5b6119a6878288016118fb565b935093505060406119b9878288016115b0565b91505092959194509250565b6000602082840312156119db576119da611218565b5b60006119e9848285016112a1565b91505092915050565b6119fb81611242565b82525050565b6000602082019050611a1660008301846119f2565b92915050565b611a258161158f565b82525050565b6000602082019050611a406000830184611a1c565b92915050565b600060208284031215611a5c57611a5b611218565b5b6000611a6a8482850161126b565b91505092915050565b6000611a7e826117e0565b9050919050565b611a8e81611a73565b82525050565b6000602082019050611aa96000830184611a85565b92915050565b600082825260208201905092915050565b7f496e697469616c697a61626c653a20636f6e747261637420697320616c72656160008201527f647920696e697469616c697a6564000000000000000000000000000000000000602082015250565b6000611b1c602e83611aaf565b9150611b2782611ac0565b604082019050919050565b60006020820190508181036000830152611b4b81611b0f565b9050919050565b7f436f6d6d69746d656e74206973206e6f7420696e2074686520656c696769626960008201527f6c69747920736574210000000000000000000000000000000000000000000000602082015250565b6000611bae602983611aaf565b9150611bb982611b52565b604082019050919050565b60006020820190508181036000830152611bdd81611ba1565b9050919050565b7f4e756c6c6966696572206973206e6f742077697468696e20746865206669656c60008201527f6421000000000000000000000000000000000000000000000000000000000000602082015250565b6000611c40602283611aaf565b9150611c4b82611be4565b604082019050919050565b60006020820190508181036000830152611c6f81611c33565b9050919050565b7f41697264726f7020616c72656164792072656465656d65642100000000000000600082015250565b6000611cac601983611aaf565b9150611cb782611c76565b602082019050919050565b60006020820190508181036000830152611cdb81611c9f565b9050919050565b7f4e487b7100000000000000000000000000000000000000000000000000000000600052603260045260246000fd5b600082825260208201905092915050565b6000611d2e8385611d11565b9350611d3b83858461137d565b611d44836112c0565b840190509392505050565b60006040820190508181036000830152611d6a818587611d22565b90508181036020830152611d7e8184611734565b9050949350505050565b611d918161185b565b8114611d9c57600080fd5b50565b600081519050611dae81611d88565b92915050565b600060208284031215611dca57611dc9611218565b5b6000611dd884828501611d9f565b91505092915050565b7f50726f6f6620766572696669636174696f6e206661696c656421000000000000600082015250565b6000611e17601a83611aaf565b9150611e2282611de1565b602082019050919050565b60006020820190508181036000830152611e4681611e0a565b9050919050565b6000604082019050611e6260008301856119f2565b611e6f60208301846118d1565b9392505050565b7f4e487b7100000000000000000000000000000000000000000000000000000000600052601260045260246000fd5b6000611eb082611280565b9150611ebb83611280565b925082611ecb57611eca611e76565b5b828206905092915050565b7f4e487b7100000000000000000000000000000000000000000000000000000000600052601160045260246000fd5b6000611f1082611280565b9150611f1b83611280565b925082821015611f2e57611f2d611ed6565b5b828203905092915050565b7f4e487b7100000000000000000000000000000000000000000000000000000000600052603160045260246000fd5b6000611f7382611280565b91507fffffffffffffffffffffffffffffffffffffffffffffffffffffffffffffffff821415611fa657611fa5611ed6565b5b600182019050919050565b7f4f776e61626c653a2063616c6c6572206973206e6f7420746865206f776e6572600082015250565b6000611fe7602083611aaf565b9150611ff282611fb1565b602082019050919050565b6000602082019050818103600083015261201681611fda565b9050919050565b7f4f776e61626c653a206e6577206f776e657220697320746865207a65726f206160008201527f6464726573730000000000000000000000000000000000000000000000000000602082015250565b6000612079602683611aaf565b91506120848261201d565b604082019050919050565b600060208201905081810360008301526120a88161206c565b9050919050565b6000819050919050565b6120ca6120c582611280565b6120af565b82525050565b60006120dc82856120b9565b6020820191506120ec82846120b9565b602082019150819050939250505056fea2646970667358221220aa4208dbe06938024e92e3638ccdff09fe9c7c821a4ad3e72d7e7e3269d642c764736f6c634300080b0033",
  "linkReferences": {},
  "deployedLinkReferences": {}
}