{
  "_format": "hh-sol-artifact-1",
  "contractName": "PrivateLotteryFactory",
  "sourceName": "contracts/PrivateLotteryFactory.sol",
  "abi": [
    {
      "inputs": [
        {
          "internalType": "address",
          "name": "_proxyContract",
          "type": "address"
        },
        {
          "internalType": "address",
          "name": "_verifierContract",
          "type": "address"
        }
      ],
      "stateMutability": "nonpayable",
      "type": "constructor"
    },
    {
      "anonymous": false,
      "inputs": [
        {
          "indexed": false,
          "internalType": "address",
          "name": "lotteryContract",
          "type": "address"
        }
      ],
      "name": "BlindAuctionCloneCreated",
      "type": "event"
    },
    {
      "inputs": [
        {
          "internalType": "uint256",
          "name": "",
          "type": "uint256"
        }
      ],
      "name": "AirdropContractAddresses",
      "outputs": [
        {
          "internalType": "address",
          "name": "",
          "type": "address"
        }
      ],
      "stateMutability": "view",
      "type": "function"
    },
    {
      "inputs": [
        {
          "internalType": "contract IERC20",
          "name": "_airdrop_erc",
          "type": "address"
        },
        {
          "internalType": "uint256",
          "name": "_amount",
          "type": "uint256"
        },
        {
          "internalType": "contract IERC721NFT",
          "name": "_airdrop",
          "type": "address"
        },
        {
          "internalType": "contract IPlonkVerifier",
          "name": "_verifier",
          "type": "address"
        },
        {
          "internalType": "bytes32",
          "name": "_root",
          "type": "bytes32"
        },
        {
          "internalType": "uint256[]",
          "name": "_commitments",
          "type": "uint256[]"
        }
      ],
      "name": "createLottery",
      "outputs": [
        {
          "internalType": "address",
          "name": "lotteryContract",
          "type": "address"
        }
      ],
      "stateMutability": "payable",
      "type": "function"
    },
    {
      "inputs": [],
      "name": "proxyContract",
      "outputs": [
        {
          "internalType": "address",
          "name": "",
          "type": "address"
        }
      ],
      "stateMutability": "view",
      "type": "function"
    },
    {
      "inputs": [],
      "name": "verifierContract",
      "outputs": [
        {
          "internalType": "address",
          "name": "",
          "type": "address"
        }
      ],
      "stateMutability": "view",
      "type": "function"
    }
  ],
  "bytecode": "0x608060405234801561001057600080fd5b50604051610a49380380610a498339818101604052810190610032919061011e565b81600160006101000a81548173ffffffffffffffffffffffffffffffffffffffff021916908373ffffffffffffffffffffffffffffffffffffffff16021790555080600260006101000a81548173ffffffffffffffffffffffffffffffffffffffff021916908373ffffffffffffffffffffffffffffffffffffffff160217905550505061015e565b600080fd5b600073ffffffffffffffffffffffffffffffffffffffff82169050919050565b60006100eb826100c0565b9050919050565b6100fb816100e0565b811461010657600080fd5b50565b600081519050610118816100f2565b92915050565b60008060408385031215610135576101346100bb565b5b600061014385828601610109565b925050602061015485828601610109565b9150509250929050565b6108dc8061016d6000396000f3fe60806040526004361061003f5760003560e01c8063a22fa56e14610044578063cf69568814610074578063e22d158f1461009f578063ed550443146100dc575b600080fd5b61005e60048036038101906100599190610579565b610107565b60405161006b9190610637565b60405180910390f35b34801561008057600080fd5b50610089610252565b6040516100969190610637565b60405180910390f35b3480156100ab57600080fd5b506100c660048036038101906100c19190610652565b610278565b6040516100d39190610637565b60405180910390f35b3480156100e857600080fd5b506100f16102b7565b6040516100fe9190610637565b60405180910390f35b6000610134600160009054906101000a900473ffffffffffffffffffffffffffffffffffffffff166102dd565b90508073ffffffffffffffffffffffffffffffffffffffff16631c21dbaf898989898989896040518863ffffffff1660e01b815260040161017b97969594939291906107bf565b600060405180830381600087803b15801561019557600080fd5b505af11580156101a9573d6000803e3d6000fd5b505050506000819080600181540180825580915050600190039060005260206000200160009091909190916101000a81548173ffffffffffffffffffffffffffffffffffffffff021916908373ffffffffffffffffffffffffffffffffffffffff1602179055507f0222c3cd5c90b8efcce85fbd83fa37c0dda170d259d53470eadd64b22edc67188160405161023f9190610637565b60405180910390a1979650505050505050565b600260009054906101000a900473ffffffffffffffffffffffffffffffffffffffff1681565b6000818154811061028857600080fd5b906000526020600020016000915054906101000a900473ffffffffffffffffffffffffffffffffffffffff1681565b600160009054906101000a900473ffffffffffffffffffffffffffffffffffffffff1681565b60006040517f3d602d80600a3d3981f3363d3d373d3d3d363d7300000000000000000000000081528260601b60148201527f5af43d82803e903d91602b57fd5bf3000000000000000000000000000000000060288201526037816000f0915050600073ffffffffffffffffffffffffffffffffffffffff168173ffffffffffffffffffffffffffffffffffffffff1614156103ad576040517f08c379a00000000000000000000000000000000000000000000000000000000081526004016103a490610886565b60405180910390fd5b919050565b600080fd5b600080fd5b600073ffffffffffffffffffffffffffffffffffffffff82169050919050565b60006103e7826103bc565b9050919050565b60006103f9826103dc565b9050919050565b610409816103ee565b811461041457600080fd5b50565b60008135905061042681610400565b92915050565b6000819050919050565b61043f8161042c565b811461044a57600080fd5b50565b60008135905061045c81610436565b92915050565b600061046d826103dc565b9050919050565b61047d81610462565b811461048857600080fd5b50565b60008135905061049a81610474565b92915050565b60006104ab826103dc565b9050919050565b6104bb816104a0565b81146104c657600080fd5b50565b6000813590506104d8816104b2565b92915050565b6000819050919050565b6104f1816104de565b81146104fc57600080fd5b50565b60008135905061050e816104e8565b92915050565b600080fd5b600080fd5b600080fd5b60008083601f84011261053957610538610514565b5b8235905067ffffffffffffffff81111561055657610555610519565b5b6020830191508360208202830111156105725761057161051e565b5b9250929050565b600080600080600080600060c0888a031215610598576105976103b2565b5b60006105a68a828b01610417565b97505060206105b78a828b0161044d565b96505060406105c88a828b0161048b565b95505060606105d98a828b016104c9565b94505060806105ea8a828b016104ff565b93505060a088013567ffffffffffffffff81111561060b5761060a6103b7565b5b6106178a828b01610523565b925092505092959891949750929550565b610631816103dc565b82525050565b600060208201905061064c6000830184610628565b92915050565b600060208284031215610668576106676103b2565b5b60006106768482850161044d565b91505092915050565b6000819050919050565b60006106a461069f61069a846103bc565b61067f565b6103bc565b9050919050565b60006106b682610689565b9050919050565b60006106c8826106ab565b9050919050565b6106d8816106bd565b82525050565b6106e78161042c565b82525050565b60006106f8826106ab565b9050919050565b610708816106ed565b82525050565b6000610719826106ab565b9050919050565b6107298161070e565b82525050565b610738816104de565b82525050565b600082825260208201905092915050565b600080fd5b82818337600083830152505050565b600061076f838561073e565b93507f07ffffffffffffffffffffffffffffffffffffffffffffffffffffffffffffff8311156107a2576107a161074f565b5b6020830292506107b3838584610754565b82840190509392505050565b600060c0820190506107d4600083018a6106cf565b6107e160208301896106de565b6107ee60408301886106ff565b6107fb6060830187610720565b610808608083018661072f565b81810360a083015261081b818486610763565b905098975050505050505050565b600082825260208201905092915050565b7f455243313136373a20637265617465206661696c656400000000000000000000600082015250565b6000610870601683610829565b915061087b8261083a565b602082019050919050565b6000602082019050818103600083015261089f81610863565b905091905056fea2646970667358221220f04f93ad21143b2da56d0bf0324df4dee23638deaa34e0c5476bffe8c906e28764736f6c634300080b0033",
  "linkReferences": {},
  "deployedLinkReferences": {}
}