{
  "_format": "hh-sol-artifact-1",
  "contractName": "PrivateLottery",
  "sourceName": "contracts/PrivateLottery.sol",
  "abi": [
    {
      "anonymous": false,
      "inputs": [
        {
          "indexed": true,
          "internalType": "address",
          "name": "previousOwner",
          "type": "address"
        },
        {
          "indexed": true,
          "internalType": "address",
          "name": "newOwner",
          "type": "address"
        }
      ],
      "name": "OwnershipTransferred",
      "type": "event"
    },
    {
      "inputs": [
        {
          "internalType": "uint256",
          "name": "",
          "type": "uint256"
        }
      ],
      "name": "Eligible",
      "outputs": [
        {
          "internalType": "bool",
          "name": "",
          "type": "bool"
        }
      ],
      "stateMutability": "view",
      "type": "function"
    },
    {
      "inputs": [
        {
          "internalType": "uint256",
          "name": "",
          "type": "uint256"
        }
      ],
      "name": "_randomNumbers",
      "outputs": [
        {
          "internalType": "uint256",
          "name": "",
          "type": "uint256"
        }
      ],
      "stateMutability": "view",
      "type": "function"
    },
    {
      "inputs": [],
      "name": "airdrop",
      "outputs": [
        {
          "internalType": "contract IERC721NFT",
          "name": "",
          "type": "address"
        }
      ],
      "stateMutability": "view",
      "type": "function"
    },
    {
      "inputs": [],
      "name": "chooseRandomIndex",
      "outputs": [
        {
          "internalType": "uint256",
          "name": "",
          "type": "uint256"
        }
      ],
      "stateMutability": "view",
      "type": "function"
    },
    {
      "inputs": [
        {
          "internalType": "uint256",
          "name": "commitment",
          "type": "uint256"
        },
        {
          "internalType": "bytes",
          "name": "proof",
          "type": "bytes"
        },
        {
          "internalType": "bytes32",
          "name": "nullifierHash",
          "type": "bytes32"
        }
      ],
      "name": "collectAirdrop",
      "outputs": [],
      "stateMutability": "nonpayable",
      "type": "function"
    },
    {
      "inputs": [],
      "name": "getAllCommitments",
      "outputs": [
        {
          "internalType": "uint256[]",
          "name": "",
          "type": "uint256[]"
        }
      ],
      "stateMutability": "view",
      "type": "function"
    },
    {
      "inputs": [
        {
          "internalType": "uint256",
          "name": "_commitment",
          "type": "uint256"
        }
      ],
      "name": "getEligible",
      "outputs": [
        {
          "internalType": "bool",
          "name": "",
          "type": "bool"
        }
      ],
      "stateMutability": "view",
      "type": "function"
    },
    {
      "inputs": [],
      "name": "getRandomCommitment",
      "outputs": [
        {
          "internalType": "uint256[]",
          "name": "",
          "type": "uint256[]"
        }
      ],
      "stateMutability": "view",
      "type": "function"
    },
    {
      "inputs": [],
      "name": "getRandomIndexes",
      "outputs": [
        {
          "internalType": "uint256[]",
          "name": "",
          "type": "uint256[]"
        }
      ],
      "stateMutability": "view",
      "type": "function"
    },
    {
      "inputs": [
        {
          "internalType": "contract IERC721NFT",
          "name": "_airdrop",
          "type": "address"
        },
        {
          "internalType": "contract IPlonkVerifier",
          "name": "_verifier",
          "type": "address"
        },
        {
          "internalType": "bytes32",
          "name": "_root",
          "type": "bytes32"
        },
        {
          "internalType": "uint256[]",
          "name": "_commitments",
          "type": "uint256[]"
        }
      ],
      "name": "initialize",
      "outputs": [],
      "stateMutability": "nonpayable",
      "type": "function"
    },
    {
      "inputs": [],
      "name": "nextTokenIdToBeAirdropped",
      "outputs": [
        {
          "internalType": "uint256",
          "name": "",
          "type": "uint256"
        }
      ],
      "stateMutability": "view",
      "type": "function"
    },
    {
      "inputs": [
        {
          "internalType": "bytes32",
          "name": "",
          "type": "bytes32"
        }
      ],
      "name": "nullifierSpent",
      "outputs": [
        {
          "internalType": "bool",
          "name": "",
          "type": "bool"
        }
      ],
      "stateMutability": "view",
      "type": "function"
    },
    {
      "inputs": [
        {
          "internalType": "address",
          "name": "",
          "type": "address"
        },
        {
          "internalType": "address",
          "name": "",
          "type": "address"
        },
        {
          "internalType": "uint256",
          "name": "",
          "type": "uint256"
        },
        {
          "internalType": "bytes",
          "name": "",
          "type": "bytes"
        }
      ],
      "name": "onERC721Received",
      "outputs": [
        {
          "internalType": "bytes4",
          "name": "",
          "type": "bytes4"
        }
      ],
      "stateMutability": "nonpayable",
      "type": "function"
    },
    {
      "inputs": [],
      "name": "owner",
      "outputs": [
        {
          "internalType": "address",
          "name": "",
          "type": "address"
        }
      ],
      "stateMutability": "view",
      "type": "function"
    },
    {
      "inputs": [],
      "name": "renounceOwnership",
      "outputs": [],
      "stateMutability": "nonpayable",
      "type": "function"
    },
    {
      "inputs": [],
      "name": "root",
      "outputs": [
        {
          "internalType": "bytes32",
          "name": "",
          "type": "bytes32"
        }
      ],
      "stateMutability": "view",
      "type": "function"
    },
    {
      "inputs": [
        {
          "internalType": "uint256",
          "name": "_commitment",
          "type": "uint256"
        }
      ],
      "name": "setEligible",
      "outputs": [],
      "stateMutability": "nonpayable",
      "type": "function"
    },
    {
      "inputs": [
        {
          "internalType": "uint256",
          "name": "quantity",
          "type": "uint256"
        },
        {
          "internalType": "uint256",
          "name": "initial",
          "type": "uint256"
        }
      ],
      "name": "setInitialTokenId",
      "outputs": [
        {
          "internalType": "uint256",
          "name": "",
          "type": "uint256"
        }
      ],
      "stateMutability": "nonpayable",
      "type": "function"
    },
    {
      "inputs": [],
      "name": "setRandomCommitment",
      "outputs": [
        {
          "internalType": "uint256[]",
          "name": "",
          "type": "uint256[]"
        }
      ],
      "stateMutability": "nonpayable",
      "type": "function"
    },
    {
      "inputs": [],
      "name": "setRandomIndexes",
      "outputs": [
        {
          "internalType": "uint256[]",
          "name": "",
          "type": "uint256[]"
        }
      ],
      "stateMutability": "nonpayable",
      "type": "function"
    },
    {
      "inputs": [
        {
          "internalType": "address",
          "name": "newOwner",
          "type": "address"
        }
      ],
      "name": "transferOwnership",
      "outputs": [],
      "stateMutability": "nonpayable",
      "type": "function"
    }
  ],
  "bytecode": "0x608060405234801561001057600080fd5b5061002d61002261003260201b60201c565b61003a60201b60201c565b6100fe565b600033905090565b60008060009054906101000a900473ffffffffffffffffffffffffffffffffffffffff169050816000806101000a81548173ffffffffffffffffffffffffffffffffffffffff021916908373ffffffffffffffffffffffffffffffffffffffff1602179055508173ffffffffffffffffffffffffffffffffffffffff168173ffffffffffffffffffffffffffffffffffffffff167f8be0079c531659141344cd1fd0a4f28419497f9722a3daafe3b4186f6b6457e060405160405180910390a35050565b611fdf8061010d6000396000f3fe608060405234801561001057600080fd5b50600436106101375760003560e01c8063715018a6116100b8578063a79b9fb31161007c578063a79b9fb314610340578063c58c35371461035e578063dd48f3171461037c578063e3650d54146103ac578063ebf0c717146103c8578063f2fde38b146103e657610137565b8063715018a61461029a57806378092c9b146102a457806379c6cba6146102d45780638c55af1d146103045780638da5cb5b1461032257610137565b80633b0ea378116100ff5780633b0ea378146101f4578063430ca7ab14610224578063540d393d14610240578063562712451461025e5780637050796e1461027c57610137565b8063150b7a021461013c5780632c0ee3c41461016c578063356b004e1461018a5780633884d635146101a657806338c86911146101c4575b600080fd5b6101566004803603810190610151919061133c565b610402565b60405161016391906113fa565b60405180910390f35b610174610416565b60405161018191906114d3565b60405180910390f35b6101a4600480360381019061019f9190611607565b61046e565b005b6101ae6105f5565b6040516101bb91906116ee565b60405180910390f35b6101de60048036038101906101d99190611709565b61061b565b6040516101eb9190611751565b60405180910390f35b61020e6004803603810190610209919061176c565b61063b565b60405161021b91906117bb565b60405180910390f35b61023e6004803603810190610239919061182c565b6106b7565b005b610248610a51565b60405161025591906117bb565b60405180910390f35b610266610a75565b60405161027391906114d3565b60405180910390f35b610284610c0a565b60405161029191906117bb565b60405180910390f35b6102a2610c10565b005b6102be60048036038101906102b991906118a0565b610c98565b6040516102cb9190611751565b60405180910390f35b6102ee60048036038101906102e991906118a0565b610cb8565b6040516102fb91906117bb565b60405180910390f35b61030c610cdc565b60405161031991906114d3565b60405180910390f35b61032a610d81565b60405161033791906118dc565b60405180910390f35b610348610daa565b60405161035591906114d3565b60405180910390f35b610366610e02565b60405161037391906114d3565b60405180910390f35b610396600480360381019061039191906118a0565b610e5a565b6040516103a39190611751565b60405180910390f35b6103c660048036038101906103c191906118a0565b610e84565b005b6103d0610eb3565b6040516103dd9190611906565b60405180910390f35b61040060048036038101906103fb9190611921565b610eb9565b005b600063150b7a0260e01b9050949350505050565b6060600480548060200260200160405190810160405280929190818152602001828054801561046457602002820191906000526020600020905b815481526020019060010190808311610450575b5050505050905090565b600060159054906101000a900460ff1661049857600060149054906101000a900460ff16156104a1565b6104a0610fb1565b5b6104e0576040517f08c379a00000000000000000000000000000000000000000000000000000000081526004016104d7906119d1565b60405180910390fd5b60008060159054906101000a900460ff161590508015610531576001600060156101000a81548160ff0219169083151502179055506001600060146101000a81548160ff0219169083151502179055505b85600160006101000a81548173ffffffffffffffffffffffffffffffffffffffff021916908373ffffffffffffffffffffffffffffffffffffffff16021790555084600260006101000a81548173ffffffffffffffffffffffffffffffffffffffff021916908373ffffffffffffffffffffffffffffffffffffffff160217905550836003819055508282600491906105cb9291906110e4565b5080156105ed5760008060156101000a81548160ff0219169083151502179055505b505050505050565b600160009054906101000a900473ffffffffffffffffffffffffffffffffffffffff1681565b60086020528060005260406000206000915054906101000a900460ff1681565b6000600160009054906101000a900473ffffffffffffffffffffffffffffffffffffffff1673ffffffffffffffffffffffffffffffffffffffff163373ffffffffffffffffffffffffffffffffffffffff161461069757600080fd5b82600754106106a557600080fd5b81600781905550600754905092915050565b6106c084610e5a565b6106ff576040517f08c379a00000000000000000000000000000000000000000000000000000000081526004016106f690611a63565b60405180910390fd5b7f30644e72e131a029b85045b68181585d2833e84879b9709143e1f593f00000018160001c10610764576040517f08c379a000000000000000000000000000000000000000000000000000000000815260040161075b90611af5565b60405180910390fd5b6008600082815260200190815260200160002060009054906101000a900460ff16156107c5576040517f08c379a00000000000000000000000000000000000000000000000000000000081526004016107bc90611b61565b60405180910390fd5b6000600367ffffffffffffffff8111156107e2576107e1611211565b5b6040519080825280602002602001820160405280156108105781602001602082028036833780820191505090505b50905060035460001c8160008151811061082d5761082c611b81565b5b6020026020010181815250508160001c8160018151811061085157610850611b81565b5b6020026020010181815250503373ffffffffffffffffffffffffffffffffffffffff168160028151811061088857610887611b81565b5b602002602001018181525050600260009054906101000a900473ffffffffffffffffffffffffffffffffffffffff1673ffffffffffffffffffffffffffffffffffffffff16631e8e1e138585846040518463ffffffff1660e01b81526004016108f393929190611bee565b602060405180830381865afa158015610910573d6000803e3d6000fd5b505050506040513d601f19601f820116820180604052508101906109349190611c53565b610973576040517f08c379a000000000000000000000000000000000000000000000000000000000815260040161096a90611ccc565b60405180910390fd5b60016008600084815260200190815260200160002060006101000a81548160ff021916908315150217905550600160009054906101000a900473ffffffffffffffffffffffffffffffffffffffff1673ffffffffffffffffffffffffffffffffffffffff166323b872dd30336007546040518463ffffffff1660e01b8152600401610a0093929190611cec565b600060405180830381600087803b158015610a1a57600080fd5b505af1158015610a2e573d6000803e3d6000fd5b5050505060076000815480929190610a4590611d52565b91905055505050505050565b600080600680549050610a62610fc2565b610a6c9190611dca565b90508091505090565b606060005b600480549050811015610bb3576000610a91610a51565b9050600060068281548110610aa957610aa8611b81565b5b9060005260206000200154905060066001600680549050610aca9190611dfb565b81548110610adb57610ada611b81565b5b906000526020600020015460068381548110610afa57610af9611b81565b5b90600052602060002001819055506006805480610b1a57610b19611e2f565b5b60019003818190600052602060002001600090559055610b5760048281548110610b4757610b46611b81565b5b9060005260206000200154610e84565b600560048281548110610b6d57610b6c611b81565b5b9060005260206000200154908060018154018082558091505060019003906000526020600020016000909190919091505550508080610bab90611d52565b915050610a7a565b506005805480602002602001604051908101604052809291908181526020018280548015610c0057602002820191906000526020600020905b815481526020019060010190808311610bec575b5050505050905090565b60075481565b610c18610ff5565b73ffffffffffffffffffffffffffffffffffffffff16610c36610d81565b73ffffffffffffffffffffffffffffffffffffffff1614610c8c576040517f08c379a0000000000000000000000000000000000000000000000000000000008152600401610c8390611eaa565b60405180910390fd5b610c966000610ffd565b565b60096020528060005260406000206000915054906101000a900460ff1681565b60068181548110610cc857600080fd5b906000526020600020016000915090505481565b606060005b600480549050811015610d2a5760068190806001815401808255809150506001900390600052602060002001600090919091909150558080610d2290611d52565b915050610ce1565b506006805480602002602001604051908101604052809291908181526020018280548015610d7757602002820191906000526020600020905b815481526020019060010190808311610d63575b5050505050905090565b60008060009054906101000a900473ffffffffffffffffffffffffffffffffffffffff16905090565b60606005805480602002602001604051908101604052809291908181526020018280548015610df857602002820191906000526020600020905b815481526020019060010190808311610de4575b5050505050905090565b60606006805480602002602001604051908101604052809291908181526020018280548015610e5057602002820191906000526020600020905b815481526020019060010190808311610e3c575b5050505050905090565b60006009600083815260200190815260200160002060009054906101000a900460ff169050919050565b60016009600083815260200190815260200160002060006101000a81548160ff02191690831515021790555050565b60035481565b610ec1610ff5565b73ffffffffffffffffffffffffffffffffffffffff16610edf610d81565b73ffffffffffffffffffffffffffffffffffffffff1614610f35576040517f08c379a0000000000000000000000000000000000000000000000000000000008152600401610f2c90611eaa565b60405180910390fd5b600073ffffffffffffffffffffffffffffffffffffffff168173ffffffffffffffffffffffffffffffffffffffff161415610fa5576040517f08c379a0000000000000000000000000000000000000000000000000000000008152600401610f9c90611f3c565b60405180910390fd5b610fae81610ffd565b50565b6000610fbc306110c1565b15905090565b60004442604051602001610fd7929190611f7d565b6040516020818303038152906040528051906020012060001c905090565b600033905090565b60008060009054906101000a900473ffffffffffffffffffffffffffffffffffffffff169050816000806101000a81548173ffffffffffffffffffffffffffffffffffffffff021916908373ffffffffffffffffffffffffffffffffffffffff1602179055508173ffffffffffffffffffffffffffffffffffffffff168173ffffffffffffffffffffffffffffffffffffffff167f8be0079c531659141344cd1fd0a4f28419497f9722a3daafe3b4186f6b6457e060405160405180910390a35050565b6000808273ffffffffffffffffffffffffffffffffffffffff163b119050919050565b828054828255906000526020600020908101928215611120579160200282015b8281111561111f578235825591602001919060010190611104565b5b50905061112d9190611131565b5090565b5b8082111561114a576000816000905550600101611132565b5090565b6000604051905090565b600080fd5b600080fd5b600073ffffffffffffffffffffffffffffffffffffffff82169050919050565b600061118d82611162565b9050919050565b61119d81611182565b81146111a857600080fd5b50565b6000813590506111ba81611194565b92915050565b6000819050919050565b6111d3816111c0565b81146111de57600080fd5b50565b6000813590506111f0816111ca565b92915050565b600080fd5b600080fd5b6000601f19601f8301169050919050565b7f4e487b7100000000000000000000000000000000000000000000000000000000600052604160045260246000fd5b61124982611200565b810181811067ffffffffffffffff8211171561126857611267611211565b5b80604052505050565b600061127b61114e565b90506112878282611240565b919050565b600067ffffffffffffffff8211156112a7576112a6611211565b5b6112b082611200565b9050602081019050919050565b82818337600083830152505050565b60006112df6112da8461128c565b611271565b9050828152602081018484840111156112fb576112fa6111fb565b5b6113068482856112bd565b509392505050565b600082601f830112611323576113226111f6565b5b81356113338482602086016112cc565b91505092915050565b6000806000806080858703121561135657611355611158565b5b6000611364878288016111ab565b9450506020611375878288016111ab565b9350506040611386878288016111e1565b925050606085013567ffffffffffffffff8111156113a7576113a661115d565b5b6113b38782880161130e565b91505092959194509250565b60007fffffffff0000000000000000000000000000000000000000000000000000000082169050919050565b6113f4816113bf565b82525050565b600060208201905061140f60008301846113eb565b92915050565b600081519050919050565b600082825260208201905092915050565b6000819050602082019050919050565b61144a816111c0565b82525050565b600061145c8383611441565b60208301905092915050565b6000602082019050919050565b600061148082611415565b61148a8185611420565b935061149583611431565b8060005b838110156114c65781516114ad8882611450565b97506114b883611468565b925050600181019050611499565b5085935050505092915050565b600060208201905081810360008301526114ed8184611475565b905092915050565b600061150082611182565b9050919050565b611510816114f5565b811461151b57600080fd5b50565b60008135905061152d81611507565b92915050565b600061153e82611182565b9050919050565b61154e81611533565b811461155957600080fd5b50565b60008135905061156b81611545565b92915050565b6000819050919050565b61158481611571565b811461158f57600080fd5b50565b6000813590506115a18161157b565b92915050565b600080fd5b600080fd5b60008083601f8401126115c7576115c66111f6565b5b8235905067ffffffffffffffff8111156115e4576115e36115a7565b5b602083019150836020820283011115611600576115ff6115ac565b5b9250929050565b60008060008060006080868803121561162357611622611158565b5b60006116318882890161151e565b95505060206116428882890161155c565b945050604061165388828901611592565b935050606086013567ffffffffffffffff8111156116745761167361115d565b5b611680888289016115b1565b92509250509295509295909350565b6000819050919050565b60006116b46116af6116aa84611162565b61168f565b611162565b9050919050565b60006116c682611699565b9050919050565b60006116d8826116bb565b9050919050565b6116e8816116cd565b82525050565b600060208201905061170360008301846116df565b92915050565b60006020828403121561171f5761171e611158565b5b600061172d84828501611592565b91505092915050565b60008115159050919050565b61174b81611736565b82525050565b60006020820190506117666000830184611742565b92915050565b6000806040838503121561178357611782611158565b5b6000611791858286016111e1565b92505060206117a2858286016111e1565b9150509250929050565b6117b5816111c0565b82525050565b60006020820190506117d060008301846117ac565b92915050565b60008083601f8401126117ec576117eb6111f6565b5b8235905067ffffffffffffffff811115611809576118086115a7565b5b602083019150836001820283011115611825576118246115ac565b5b9250929050565b6000806000806060858703121561184657611845611158565b5b6000611854878288016111e1565b945050602085013567ffffffffffffffff8111156118755761187461115d565b5b611881878288016117d6565b9350935050604061189487828801611592565b91505092959194509250565b6000602082840312156118b6576118b5611158565b5b60006118c4848285016111e1565b91505092915050565b6118d681611182565b82525050565b60006020820190506118f160008301846118cd565b92915050565b61190081611571565b82525050565b600060208201905061191b60008301846118f7565b92915050565b60006020828403121561193757611936611158565b5b6000611945848285016111ab565b91505092915050565b600082825260208201905092915050565b7f496e697469616c697a61626c653a20636f6e747261637420697320616c72656160008201527f647920696e697469616c697a6564000000000000000000000000000000000000602082015250565b60006119bb602e8361194e565b91506119c68261195f565b604082019050919050565b600060208201905081810360008301526119ea816119ae565b9050919050565b7f436f6d6d69746d656e74206973206e6f7420696e2074686520656c696769626960008201527f6c69747920736574000000000000000000000000000000000000000000000000602082015250565b6000611a4d60288361194e565b9150611a58826119f1565b604082019050919050565b60006020820190508181036000830152611a7c81611a40565b9050919050565b7f4e756c6c6966696572206973206e6f742077697468696e20746865206669656c60008201527f6400000000000000000000000000000000000000000000000000000000000000602082015250565b6000611adf60218361194e565b9150611aea82611a83565b604082019050919050565b60006020820190508181036000830152611b0e81611ad2565b9050919050565b7f41697264726f7020616c72656164792072656465656d65640000000000000000600082015250565b6000611b4b60188361194e565b9150611b5682611b15565b602082019050919050565b60006020820190508181036000830152611b7a81611b3e565b9050919050565b7f4e487b7100000000000000000000000000000000000000000000000000000000600052603260045260246000fd5b600082825260208201905092915050565b6000611bcd8385611bb0565b9350611bda8385846112bd565b611be383611200565b840190509392505050565b60006040820190508181036000830152611c09818587611bc1565b90508181036020830152611c1d8184611475565b9050949350505050565b611c3081611736565b8114611c3b57600080fd5b50565b600081519050611c4d81611c27565b92915050565b600060208284031215611c6957611c68611158565b5b6000611c7784828501611c3e565b91505092915050565b7f50726f6f6620766572696669636174696f6e206661696c656400000000000000600082015250565b6000611cb660198361194e565b9150611cc182611c80565b602082019050919050565b60006020820190508181036000830152611ce581611ca9565b9050919050565b6000606082019050611d0160008301866118cd565b611d0e60208301856118cd565b611d1b60408301846117ac565b949350505050565b7f4e487b7100000000000000000000000000000000000000000000000000000000600052601160045260246000fd5b6000611d5d826111c0565b91507fffffffffffffffffffffffffffffffffffffffffffffffffffffffffffffffff821415611d9057611d8f611d23565b5b600182019050919050565b7f4e487b7100000000000000000000000000000000000000000000000000000000600052601260045260246000fd5b6000611dd5826111c0565b9150611de0836111c0565b925082611df057611def611d9b565b5b828206905092915050565b6000611e06826111c0565b9150611e11836111c0565b925082821015611e2457611e23611d23565b5b828203905092915050565b7f4e487b7100000000000000000000000000000000000000000000000000000000600052603160045260246000fd5b7f4f776e61626c653a2063616c6c6572206973206e6f7420746865206f776e6572600082015250565b6000611e9460208361194e565b9150611e9f82611e5e565b602082019050919050565b60006020820190508181036000830152611ec381611e87565b9050919050565b7f4f776e61626c653a206e6577206f776e657220697320746865207a65726f206160008201527f6464726573730000000000000000000000000000000000000000000000000000602082015250565b6000611f2660268361194e565b9150611f3182611eca565b604082019050919050565b60006020820190508181036000830152611f5581611f19565b9050919050565b6000819050919050565b611f77611f72826111c0565b611f5c565b82525050565b6000611f898285611f66565b602082019150611f998284611f66565b602082019150819050939250505056fea2646970667358221220c2f6f37f659d367fb99101ef6e84c24d8b431982e35636143bbeadc61c3cd6df64736f6c634300080b0033",
  "linkReferences": {},
  "deployedLinkReferences": {}
}