{
  "_format": "hh-sol-artifact-1",
  "contractName": "PrivateLottery",
  "sourceName": "contracts/PrivateLottery.sol",
  "abi": [
    {
      "anonymous": false,
      "inputs": [
        {
          "indexed": true,
          "internalType": "address",
          "name": "previousOwner",
          "type": "address"
        },
        {
          "indexed": true,
          "internalType": "address",
          "name": "newOwner",
          "type": "address"
        }
      ],
      "name": "OwnershipTransferred",
      "type": "event"
    },
    {
      "inputs": [
        {
          "internalType": "uint256",
          "name": "",
          "type": "uint256"
        }
      ],
      "name": "Eligible",
      "outputs": [
        {
          "internalType": "bool",
          "name": "",
          "type": "bool"
        }
      ],
      "stateMutability": "view",
      "type": "function"
    },
    {
      "inputs": [
        {
          "internalType": "uint256",
          "name": "",
          "type": "uint256"
        }
      ],
      "name": "_randomNumbers",
      "outputs": [
        {
          "internalType": "uint256",
          "name": "",
          "type": "uint256"
        }
      ],
      "stateMutability": "view",
      "type": "function"
    },
    {
      "inputs": [],
      "name": "airdrop",
      "outputs": [
        {
          "internalType": "contract IERC721NFT",
          "name": "",
          "type": "address"
        }
      ],
      "stateMutability": "view",
      "type": "function"
    },
    {
      "inputs": [],
      "name": "chooseRandomIndex",
      "outputs": [
        {
          "internalType": "uint256",
          "name": "",
          "type": "uint256"
        }
      ],
      "stateMutability": "view",
      "type": "function"
    },
    {
      "inputs": [
        {
          "internalType": "uint256",
          "name": "commitment",
          "type": "uint256"
        },
        {
          "internalType": "bytes",
          "name": "proof",
          "type": "bytes"
        },
        {
          "internalType": "bytes32",
          "name": "nullifierHash",
          "type": "bytes32"
        }
      ],
      "name": "collectAirdrop",
      "outputs": [],
      "stateMutability": "nonpayable",
      "type": "function"
    },
    {
      "inputs": [],
      "name": "getAllCommitments",
      "outputs": [
        {
          "internalType": "uint256[]",
          "name": "",
          "type": "uint256[]"
        }
      ],
      "stateMutability": "view",
      "type": "function"
    },
    {
      "inputs": [
        {
          "internalType": "uint256",
          "name": "_commitment",
          "type": "uint256"
        }
      ],
      "name": "getEligible",
      "outputs": [
        {
          "internalType": "bool",
          "name": "",
          "type": "bool"
        }
      ],
      "stateMutability": "view",
      "type": "function"
    },
    {
      "inputs": [],
      "name": "getRandomCommitment",
      "outputs": [
        {
          "internalType": "uint256[]",
          "name": "",
          "type": "uint256[]"
        }
      ],
      "stateMutability": "view",
      "type": "function"
    },
    {
      "inputs": [],
      "name": "getRandomIndexes",
      "outputs": [
        {
          "internalType": "uint256[]",
          "name": "",
          "type": "uint256[]"
        }
      ],
      "stateMutability": "view",
      "type": "function"
    },
    {
      "inputs": [
        {
          "internalType": "contract IERC721NFT",
          "name": "_airdrop",
          "type": "address"
        },
        {
          "internalType": "contract IPlonkVerifier",
          "name": "_verifier",
          "type": "address"
        },
        {
          "internalType": "bytes32",
          "name": "_root",
          "type": "bytes32"
        },
        {
          "internalType": "uint256[]",
          "name": "_commitments",
          "type": "uint256[]"
        }
      ],
      "name": "initialize",
      "outputs": [],
      "stateMutability": "nonpayable",
      "type": "function"
    },
    {
      "inputs": [],
      "name": "nextTokenIdToBeAirdropped",
      "outputs": [
        {
          "internalType": "uint256",
          "name": "",
          "type": "uint256"
        }
      ],
      "stateMutability": "view",
      "type": "function"
    },
    {
      "inputs": [
        {
          "internalType": "bytes32",
          "name": "",
          "type": "bytes32"
        }
      ],
      "name": "nullifierSpent",
      "outputs": [
        {
          "internalType": "bool",
          "name": "",
          "type": "bool"
        }
      ],
      "stateMutability": "view",
      "type": "function"
    },
    {
      "inputs": [
        {
          "internalType": "address",
          "name": "",
          "type": "address"
        },
        {
          "internalType": "address",
          "name": "",
          "type": "address"
        },
        {
          "internalType": "uint256",
          "name": "",
          "type": "uint256"
        },
        {
          "internalType": "bytes",
          "name": "",
          "type": "bytes"
        }
      ],
      "name": "onERC721Received",
      "outputs": [
        {
          "internalType": "bytes4",
          "name": "",
          "type": "bytes4"
        }
      ],
      "stateMutability": "nonpayable",
      "type": "function"
    },
    {
      "inputs": [],
      "name": "owner",
      "outputs": [
        {
          "internalType": "address",
          "name": "",
          "type": "address"
        }
      ],
      "stateMutability": "view",
      "type": "function"
    },
    {
      "inputs": [],
      "name": "renounceOwnership",
      "outputs": [],
      "stateMutability": "nonpayable",
      "type": "function"
    },
    {
      "inputs": [],
      "name": "root",
      "outputs": [
        {
          "internalType": "bytes32",
          "name": "",
          "type": "bytes32"
        }
      ],
      "stateMutability": "view",
      "type": "function"
    },
    {
      "inputs": [
        {
          "internalType": "uint256",
          "name": "_commitment",
          "type": "uint256"
        }
      ],
      "name": "setEligible",
      "outputs": [],
      "stateMutability": "nonpayable",
      "type": "function"
    },
    {
      "inputs": [
        {
          "internalType": "uint256",
          "name": "quantity",
          "type": "uint256"
        },
        {
          "internalType": "uint256",
          "name": "initial",
          "type": "uint256"
        }
      ],
      "name": "setInitialTokenId",
      "outputs": [
        {
          "internalType": "uint256",
          "name": "",
          "type": "uint256"
        }
      ],
      "stateMutability": "nonpayable",
      "type": "function"
    },
    {
      "inputs": [],
      "name": "setRandomCommitment",
      "outputs": [
        {
          "internalType": "uint256[]",
          "name": "",
          "type": "uint256[]"
        }
      ],
      "stateMutability": "nonpayable",
      "type": "function"
    },
    {
      "inputs": [],
      "name": "setRandomIndexes",
      "outputs": [
        {
          "internalType": "uint256[]",
          "name": "",
          "type": "uint256[]"
        }
      ],
      "stateMutability": "nonpayable",
      "type": "function"
    },
    {
      "inputs": [
        {
          "internalType": "address",
          "name": "newOwner",
          "type": "address"
        }
      ],
      "name": "transferOwnership",
      "outputs": [],
      "stateMutability": "nonpayable",
      "type": "function"
    }
  ],
  "bytecode": "0x608060405234801561001057600080fd5b5061002d61002261003260201b60201c565b61003a60201b60201c565b6100fe565b600033905090565b60008060009054906101000a900473ffffffffffffffffffffffffffffffffffffffff169050816000806101000a81548173ffffffffffffffffffffffffffffffffffffffff021916908373ffffffffffffffffffffffffffffffffffffffff1602179055508173ffffffffffffffffffffffffffffffffffffffff168173ffffffffffffffffffffffffffffffffffffffff167f8be0079c531659141344cd1fd0a4f28419497f9722a3daafe3b4186f6b6457e060405160405180910390a35050565b61201c8061010d6000396000f3fe608060405234801561001057600080fd5b50600436106101375760003560e01c8063715018a6116100b8578063a79b9fb31161007c578063a79b9fb314610340578063c58c35371461035e578063dd48f3171461037c578063e3650d54146103ac578063ebf0c717146103c8578063f2fde38b146103e657610137565b8063715018a61461029a57806378092c9b146102a457806379c6cba6146102d45780638c55af1d146103045780638da5cb5b1461032257610137565b80633b0ea378116100ff5780633b0ea378146101f4578063430ca7ab14610224578063540d393d14610240578063562712451461025e5780637050796e1461027c57610137565b8063150b7a021461013c5780632c0ee3c41461016c578063356b004e1461018a5780633884d635146101a657806338c86911146101c4575b600080fd5b61015660048036038101906101519190611348565b610402565b6040516101639190611406565b60405180910390f35b610174610416565b60405161018191906114df565b60405180910390f35b6101a4600480360381019061019f9190611613565b61046e565b005b6101ae6105f5565b6040516101bb91906116fa565b60405180910390f35b6101de60048036038101906101d99190611715565b61061b565b6040516101eb919061175d565b60405180910390f35b61020e60048036038101906102099190611778565b61063b565b60405161021b91906117c7565b60405180910390f35b61023e60048036038101906102399190611838565b6106b7565b005b610248610a51565b60405161025591906117c7565b60405180910390f35b610266610a75565b60405161027391906114df565b60405180910390f35b610284610c16565b60405161029191906117c7565b60405180910390f35b6102a2610c1c565b005b6102be60048036038101906102b991906118ac565b610ca4565b6040516102cb919061175d565b60405180910390f35b6102ee60048036038101906102e991906118ac565b610cc4565b6040516102fb91906117c7565b60405180910390f35b61030c610ce8565b60405161031991906114df565b60405180910390f35b61032a610d8d565b60405161033791906118e8565b60405180910390f35b610348610db6565b60405161035591906114df565b60405180910390f35b610366610e0e565b60405161037391906114df565b60405180910390f35b610396600480360381019061039191906118ac565b610e66565b6040516103a3919061175d565b60405180910390f35b6103c660048036038101906103c191906118ac565b610e90565b005b6103d0610ebf565b6040516103dd9190611912565b60405180910390f35b61040060048036038101906103fb919061192d565b610ec5565b005b600063150b7a0260e01b9050949350505050565b6060600480548060200260200160405190810160405280929190818152602001828054801561046457602002820191906000526020600020905b815481526020019060010190808311610450575b5050505050905090565b600060159054906101000a900460ff1661049857600060149054906101000a900460ff16156104a1565b6104a0610fbd565b5b6104e0576040517f08c379a00000000000000000000000000000000000000000000000000000000081526004016104d7906119dd565b60405180910390fd5b60008060159054906101000a900460ff161590508015610531576001600060156101000a81548160ff0219169083151502179055506001600060146101000a81548160ff0219169083151502179055505b85600160006101000a81548173ffffffffffffffffffffffffffffffffffffffff021916908373ffffffffffffffffffffffffffffffffffffffff16021790555084600260006101000a81548173ffffffffffffffffffffffffffffffffffffffff021916908373ffffffffffffffffffffffffffffffffffffffff160217905550836003819055508282600491906105cb9291906110f0565b5080156105ed5760008060156101000a81548160ff0219169083151502179055505b505050505050565b600160009054906101000a900473ffffffffffffffffffffffffffffffffffffffff1681565b60086020528060005260406000206000915054906101000a900460ff1681565b6000600160009054906101000a900473ffffffffffffffffffffffffffffffffffffffff1673ffffffffffffffffffffffffffffffffffffffff163373ffffffffffffffffffffffffffffffffffffffff161461069757600080fd5b82600754106106a557600080fd5b81600781905550600754905092915050565b6106c084610e66565b6106ff576040517f08c379a00000000000000000000000000000000000000000000000000000000081526004016106f690611a6f565b60405180910390fd5b7f30644e72e131a029b85045b68181585d2833e84879b9709143e1f593f00000018160001c10610764576040517f08c379a000000000000000000000000000000000000000000000000000000000815260040161075b90611b01565b60405180910390fd5b6008600082815260200190815260200160002060009054906101000a900460ff16156107c5576040517f08c379a00000000000000000000000000000000000000000000000000000000081526004016107bc90611b6d565b60405180910390fd5b6000600367ffffffffffffffff8111156107e2576107e161121d565b5b6040519080825280602002602001820160405280156108105781602001602082028036833780820191505090505b50905060035460001c8160008151811061082d5761082c611b8d565b5b6020026020010181815250508160001c8160018151811061085157610850611b8d565b5b6020026020010181815250503373ffffffffffffffffffffffffffffffffffffffff168160028151811061088857610887611b8d565b5b602002602001018181525050600260009054906101000a900473ffffffffffffffffffffffffffffffffffffffff1673ffffffffffffffffffffffffffffffffffffffff16631e8e1e138585846040518463ffffffff1660e01b81526004016108f393929190611bfa565b602060405180830381865afa158015610910573d6000803e3d6000fd5b505050506040513d601f19601f820116820180604052508101906109349190611c5f565b610973576040517f08c379a000000000000000000000000000000000000000000000000000000000815260040161096a90611cd8565b60405180910390fd5b60016008600084815260200190815260200160002060006101000a81548160ff021916908315150217905550600160009054906101000a900473ffffffffffffffffffffffffffffffffffffffff1673ffffffffffffffffffffffffffffffffffffffff166323b872dd30336007546040518463ffffffff1660e01b8152600401610a0093929190611cf8565b600060405180830381600087803b158015610a1a57600080fd5b505af1158015610a2e573d6000803e3d6000fd5b5050505060076000815480929190610a4590611d5e565b91905055505050505050565b600080600680549050610a62610fce565b610a6c9190611dd6565b90508091505090565b606060005b6002600480549050610a8c9190611e07565b811015610bbf576000610a9d610a51565b9050600060068281548110610ab557610ab4611b8d565b5b9060005260206000200154905060066001600680549050610ad69190611e38565b81548110610ae757610ae6611b8d565b5b906000526020600020015460068381548110610b0657610b05611b8d565b5b90600052602060002001819055506006805480610b2657610b25611e6c565b5b60019003818190600052602060002001600090559055610b6360048281548110610b5357610b52611b8d565b5b9060005260206000200154610e90565b600560048281548110610b7957610b78611b8d565b5b9060005260206000200154908060018154018082558091505060019003906000526020600020016000909190919091505550508080610bb790611d5e565b915050610a7a565b506005805480602002602001604051908101604052809291908181526020018280548015610c0c57602002820191906000526020600020905b815481526020019060010190808311610bf8575b5050505050905090565b60075481565b610c24611001565b73ffffffffffffffffffffffffffffffffffffffff16610c42610d8d565b73ffffffffffffffffffffffffffffffffffffffff1614610c98576040517f08c379a0000000000000000000000000000000000000000000000000000000008152600401610c8f90611ee7565b60405180910390fd5b610ca26000611009565b565b60096020528060005260406000206000915054906101000a900460ff1681565b60068181548110610cd457600080fd5b906000526020600020016000915090505481565b606060005b600480549050811015610d365760068190806001815401808255809150506001900390600052602060002001600090919091909150558080610d2e90611d5e565b915050610ced565b506006805480602002602001604051908101604052809291908181526020018280548015610d8357602002820191906000526020600020905b815481526020019060010190808311610d6f575b5050505050905090565b60008060009054906101000a900473ffffffffffffffffffffffffffffffffffffffff16905090565b60606005805480602002602001604051908101604052809291908181526020018280548015610e0457602002820191906000526020600020905b815481526020019060010190808311610df0575b5050505050905090565b60606006805480602002602001604051908101604052809291908181526020018280548015610e5c57602002820191906000526020600020905b815481526020019060010190808311610e48575b5050505050905090565b60006009600083815260200190815260200160002060009054906101000a900460ff169050919050565b60016009600083815260200190815260200160002060006101000a81548160ff02191690831515021790555050565b60035481565b610ecd611001565b73ffffffffffffffffffffffffffffffffffffffff16610eeb610d8d565b73ffffffffffffffffffffffffffffffffffffffff1614610f41576040517f08c379a0000000000000000000000000000000000000000000000000000000008152600401610f3890611ee7565b60405180910390fd5b600073ffffffffffffffffffffffffffffffffffffffff168173ffffffffffffffffffffffffffffffffffffffff161415610fb1576040517f08c379a0000000000000000000000000000000000000000000000000000000008152600401610fa890611f79565b60405180910390fd5b610fba81611009565b50565b6000610fc8306110cd565b15905090565b60004442604051602001610fe3929190611fba565b6040516020818303038152906040528051906020012060001c905090565b600033905090565b60008060009054906101000a900473ffffffffffffffffffffffffffffffffffffffff169050816000806101000a81548173ffffffffffffffffffffffffffffffffffffffff021916908373ffffffffffffffffffffffffffffffffffffffff1602179055508173ffffffffffffffffffffffffffffffffffffffff168173ffffffffffffffffffffffffffffffffffffffff167f8be0079c531659141344cd1fd0a4f28419497f9722a3daafe3b4186f6b6457e060405160405180910390a35050565b6000808273ffffffffffffffffffffffffffffffffffffffff163b119050919050565b82805482825590600052602060002090810192821561112c579160200282015b8281111561112b578235825591602001919060010190611110565b5b509050611139919061113d565b5090565b5b8082111561115657600081600090555060010161113e565b5090565b6000604051905090565b600080fd5b600080fd5b600073ffffffffffffffffffffffffffffffffffffffff82169050919050565b60006111998261116e565b9050919050565b6111a98161118e565b81146111b457600080fd5b50565b6000813590506111c6816111a0565b92915050565b6000819050919050565b6111df816111cc565b81146111ea57600080fd5b50565b6000813590506111fc816111d6565b92915050565b600080fd5b600080fd5b6000601f19601f8301169050919050565b7f4e487b7100000000000000000000000000000000000000000000000000000000600052604160045260246000fd5b6112558261120c565b810181811067ffffffffffffffff821117156112745761127361121d565b5b80604052505050565b600061128761115a565b9050611293828261124c565b919050565b600067ffffffffffffffff8211156112b3576112b261121d565b5b6112bc8261120c565b9050602081019050919050565b82818337600083830152505050565b60006112eb6112e684611298565b61127d565b90508281526020810184848401111561130757611306611207565b5b6113128482856112c9565b509392505050565b600082601f83011261132f5761132e611202565b5b813561133f8482602086016112d8565b91505092915050565b6000806000806080858703121561136257611361611164565b5b6000611370878288016111b7565b9450506020611381878288016111b7565b9350506040611392878288016111ed565b925050606085013567ffffffffffffffff8111156113b3576113b2611169565b5b6113bf8782880161131a565b91505092959194509250565b60007fffffffff0000000000000000000000000000000000000000000000000000000082169050919050565b611400816113cb565b82525050565b600060208201905061141b60008301846113f7565b92915050565b600081519050919050565b600082825260208201905092915050565b6000819050602082019050919050565b611456816111cc565b82525050565b6000611468838361144d565b60208301905092915050565b6000602082019050919050565b600061148c82611421565b611496818561142c565b93506114a18361143d565b8060005b838110156114d25781516114b9888261145c565b97506114c483611474565b9250506001810190506114a5565b5085935050505092915050565b600060208201905081810360008301526114f98184611481565b905092915050565b600061150c8261118e565b9050919050565b61151c81611501565b811461152757600080fd5b50565b60008135905061153981611513565b92915050565b600061154a8261118e565b9050919050565b61155a8161153f565b811461156557600080fd5b50565b60008135905061157781611551565b92915050565b6000819050919050565b6115908161157d565b811461159b57600080fd5b50565b6000813590506115ad81611587565b92915050565b600080fd5b600080fd5b60008083601f8401126115d3576115d2611202565b5b8235905067ffffffffffffffff8111156115f0576115ef6115b3565b5b60208301915083602082028301111561160c5761160b6115b8565b5b9250929050565b60008060008060006080868803121561162f5761162e611164565b5b600061163d8882890161152a565b955050602061164e88828901611568565b945050604061165f8882890161159e565b935050606086013567ffffffffffffffff8111156116805761167f611169565b5b61168c888289016115bd565b92509250509295509295909350565b6000819050919050565b60006116c06116bb6116b68461116e565b61169b565b61116e565b9050919050565b60006116d2826116a5565b9050919050565b60006116e4826116c7565b9050919050565b6116f4816116d9565b82525050565b600060208201905061170f60008301846116eb565b92915050565b60006020828403121561172b5761172a611164565b5b60006117398482850161159e565b91505092915050565b60008115159050919050565b61175781611742565b82525050565b6000602082019050611772600083018461174e565b92915050565b6000806040838503121561178f5761178e611164565b5b600061179d858286016111ed565b92505060206117ae858286016111ed565b9150509250929050565b6117c1816111cc565b82525050565b60006020820190506117dc60008301846117b8565b92915050565b60008083601f8401126117f8576117f7611202565b5b8235905067ffffffffffffffff811115611815576118146115b3565b5b602083019150836001820283011115611831576118306115b8565b5b9250929050565b6000806000806060858703121561185257611851611164565b5b6000611860878288016111ed565b945050602085013567ffffffffffffffff81111561188157611880611169565b5b61188d878288016117e2565b935093505060406118a08782880161159e565b91505092959194509250565b6000602082840312156118c2576118c1611164565b5b60006118d0848285016111ed565b91505092915050565b6118e28161118e565b82525050565b60006020820190506118fd60008301846118d9565b92915050565b61190c8161157d565b82525050565b60006020820190506119276000830184611903565b92915050565b60006020828403121561194357611942611164565b5b6000611951848285016111b7565b91505092915050565b600082825260208201905092915050565b7f496e697469616c697a61626c653a20636f6e747261637420697320616c72656160008201527f647920696e697469616c697a6564000000000000000000000000000000000000602082015250565b60006119c7602e8361195a565b91506119d28261196b565b604082019050919050565b600060208201905081810360008301526119f6816119ba565b9050919050565b7f436f6d6d69746d656e74206973206e6f7420696e2074686520656c696769626960008201527f6c69747920736574000000000000000000000000000000000000000000000000602082015250565b6000611a5960288361195a565b9150611a64826119fd565b604082019050919050565b60006020820190508181036000830152611a8881611a4c565b9050919050565b7f4e756c6c6966696572206973206e6f742077697468696e20746865206669656c60008201527f6400000000000000000000000000000000000000000000000000000000000000602082015250565b6000611aeb60218361195a565b9150611af682611a8f565b604082019050919050565b60006020820190508181036000830152611b1a81611ade565b9050919050565b7f41697264726f7020616c72656164792072656465656d65640000000000000000600082015250565b6000611b5760188361195a565b9150611b6282611b21565b602082019050919050565b60006020820190508181036000830152611b8681611b4a565b9050919050565b7f4e487b7100000000000000000000000000000000000000000000000000000000600052603260045260246000fd5b600082825260208201905092915050565b6000611bd98385611bbc565b9350611be68385846112c9565b611bef8361120c565b840190509392505050565b60006040820190508181036000830152611c15818587611bcd565b90508181036020830152611c298184611481565b9050949350505050565b611c3c81611742565b8114611c4757600080fd5b50565b600081519050611c5981611c33565b92915050565b600060208284031215611c7557611c74611164565b5b6000611c8384828501611c4a565b91505092915050565b7f50726f6f6620766572696669636174696f6e206661696c656400000000000000600082015250565b6000611cc260198361195a565b9150611ccd82611c8c565b602082019050919050565b60006020820190508181036000830152611cf181611cb5565b9050919050565b6000606082019050611d0d60008301866118d9565b611d1a60208301856118d9565b611d2760408301846117b8565b949350505050565b7f4e487b7100000000000000000000000000000000000000000000000000000000600052601160045260246000fd5b6000611d69826111cc565b91507fffffffffffffffffffffffffffffffffffffffffffffffffffffffffffffffff821415611d9c57611d9b611d2f565b5b600182019050919050565b7f4e487b7100000000000000000000000000000000000000000000000000000000600052601260045260246000fd5b6000611de1826111cc565b9150611dec836111cc565b925082611dfc57611dfb611da7565b5b828206905092915050565b6000611e12826111cc565b9150611e1d836111cc565b925082611e2d57611e2c611da7565b5b828204905092915050565b6000611e43826111cc565b9150611e4e836111cc565b925082821015611e6157611e60611d2f565b5b828203905092915050565b7f4e487b7100000000000000000000000000000000000000000000000000000000600052603160045260246000fd5b7f4f776e61626c653a2063616c6c6572206973206e6f7420746865206f776e6572600082015250565b6000611ed160208361195a565b9150611edc82611e9b565b602082019050919050565b60006020820190508181036000830152611f0081611ec4565b9050919050565b7f4f776e61626c653a206e6577206f776e657220697320746865207a65726f206160008201527f6464726573730000000000000000000000000000000000000000000000000000602082015250565b6000611f6360268361195a565b9150611f6e82611f07565b604082019050919050565b60006020820190508181036000830152611f9281611f56565b9050919050565b6000819050919050565b611fb4611faf826111cc565b611f99565b82525050565b6000611fc68285611fa3565b602082019150611fd68284611fa3565b602082019150819050939250505056fea2646970667358221220b76964d1ba0e8dd9944f0dab02ae262b0fb219fbfd56fc20aea306fd99c483ef64736f6c634300080b0033",
  "linkReferences": {},
  "deployedLinkReferences": {}
}