{
  "_format": "hh-sol-artifact-1",
  "contractName": "PrivateLotteryFactory",
  "sourceName": "contracts/PrivateLotteryFactory.sol",
  "abi": [
    {
      "inputs": [
        {
          "internalType": "address",
          "name": "_proxyContract",
          "type": "address"
        },
        {
          "internalType": "address",
          "name": "_verifierContract",
          "type": "address"
        }
      ],
      "stateMutability": "nonpayable",
      "type": "constructor"
    },
    {
      "anonymous": false,
      "inputs": [
        {
          "indexed": false,
          "internalType": "address",
          "name": "lotteryContract",
          "type": "address"
        }
      ],
      "name": "BlindAuctionCloneCreated",
      "type": "event"
    },
    {
      "inputs": [
        {
          "internalType": "uint256",
          "name": "",
          "type": "uint256"
        }
      ],
      "name": "AirdropContractAddresses",
      "outputs": [
        {
          "internalType": "address",
          "name": "",
          "type": "address"
        }
      ],
      "stateMutability": "view",
      "type": "function"
    },
    {
      "inputs": [
        {
          "internalType": "contract IERC20",
          "name": "_airdrop",
          "type": "address"
        },
        {
          "internalType": "uint256",
          "name": "_amount",
          "type": "uint256"
        },
        {
          "internalType": "contract IPlonkVerifier",
          "name": "_verifier",
          "type": "address"
        },
        {
          "internalType": "bytes32",
          "name": "_root",
          "type": "bytes32"
        },
        {
          "internalType": "uint256[]",
          "name": "_commitments",
          "type": "uint256[]"
        }
      ],
      "name": "createLottery",
      "outputs": [
        {
          "internalType": "address",
          "name": "lotteryContract",
          "type": "address"
        }
      ],
      "stateMutability": "payable",
      "type": "function"
    },
    {
      "inputs": [],
      "name": "proxyContract",
      "outputs": [
        {
          "internalType": "address",
          "name": "",
          "type": "address"
        }
      ],
      "stateMutability": "view",
      "type": "function"
    },
    {
      "inputs": [],
      "name": "verifierContract",
      "outputs": [
        {
          "internalType": "address",
          "name": "",
          "type": "address"
        }
      ],
      "stateMutability": "view",
      "type": "function"
    }
  ],
  "bytecode": "0x608060405234801561001057600080fd5b506040516109c43803806109c48339818101604052810190610032919061011e565b81600160006101000a81548173ffffffffffffffffffffffffffffffffffffffff021916908373ffffffffffffffffffffffffffffffffffffffff16021790555080600260006101000a81548173ffffffffffffffffffffffffffffffffffffffff021916908373ffffffffffffffffffffffffffffffffffffffff160217905550505061015e565b600080fd5b600073ffffffffffffffffffffffffffffffffffffffff82169050919050565b60006100eb826100c0565b9050919050565b6100fb816100e0565b811461010657600080fd5b50565b600081519050610118816100f2565b92915050565b60008060408385031215610135576101346100bb565b5b600061014385828601610109565b925050602061015485828601610109565b9150509250929050565b6108578061016d6000396000f3fe60806040526004361061003f5760003560e01c8063cf69568814610044578063d8673f961461006f578063e22d158f1461009f578063ed550443146100dc575b600080fd5b34801561005057600080fd5b50610059610107565b60405161006691906103f0565b60405180910390f35b61008960048036038101906100849190610562565b61012d565b60405161009691906103f0565b60405180910390f35b3480156100ab57600080fd5b506100c660048036038101906100c191906105fc565b610275565b6040516100d391906103f0565b60405180910390f35b3480156100e857600080fd5b506100f16102b4565b6040516100fe91906103f0565b60405180910390f35b600260009054906101000a900473ffffffffffffffffffffffffffffffffffffffff1681565b600061015a600160009054906101000a900473ffffffffffffffffffffffffffffffffffffffff166102da565b90508073ffffffffffffffffffffffffffffffffffffffff1663aefa3e848888888888886040518763ffffffff1660e01b815260040161019f96959493929190610748565b600060405180830381600087803b1580156101b957600080fd5b505af11580156101cd573d6000803e3d6000fd5b505050506000819080600181540180825580915050600190039060005260206000200160009091909190916101000a81548173ffffffffffffffffffffffffffffffffffffffff021916908373ffffffffffffffffffffffffffffffffffffffff1602179055507f0222c3cd5c90b8efcce85fbd83fa37c0dda170d259d53470eadd64b22edc67188160405161026391906103f0565b60405180910390a19695505050505050565b6000818154811061028557600080fd5b906000526020600020016000915054906101000a900473ffffffffffffffffffffffffffffffffffffffff1681565b600160009054906101000a900473ffffffffffffffffffffffffffffffffffffffff1681565b60006040517f3d602d80600a3d3981f3363d3d373d3d3d363d7300000000000000000000000081528260601b60148201527f5af43d82803e903d91602b57fd5bf3000000000000000000000000000000000060288201526037816000f0915050600073ffffffffffffffffffffffffffffffffffffffff168173ffffffffffffffffffffffffffffffffffffffff1614156103aa576040517f08c379a00000000000000000000000000000000000000000000000000000000081526004016103a190610801565b60405180910390fd5b919050565b600073ffffffffffffffffffffffffffffffffffffffff82169050919050565b60006103da826103af565b9050919050565b6103ea816103cf565b82525050565b600060208201905061040560008301846103e1565b92915050565b600080fd5b600080fd5b6000610420826103cf565b9050919050565b61043081610415565b811461043b57600080fd5b50565b60008135905061044d81610427565b92915050565b6000819050919050565b61046681610453565b811461047157600080fd5b50565b6000813590506104838161045d565b92915050565b6000610494826103cf565b9050919050565b6104a481610489565b81146104af57600080fd5b50565b6000813590506104c18161049b565b92915050565b6000819050919050565b6104da816104c7565b81146104e557600080fd5b50565b6000813590506104f7816104d1565b92915050565b600080fd5b600080fd5b600080fd5b60008083601f840112610522576105216104fd565b5b8235905067ffffffffffffffff81111561053f5761053e610502565b5b60208301915083602082028301111561055b5761055a610507565b5b9250929050565b60008060008060008060a0878903121561057f5761057e61040b565b5b600061058d89828a0161043e565b965050602061059e89828a01610474565b95505060406105af89828a016104b2565b94505060606105c089828a016104e8565b935050608087013567ffffffffffffffff8111156105e1576105e0610410565b5b6105ed89828a0161050c565b92509250509295509295509295565b6000602082840312156106125761061161040b565b5b600061062084828501610474565b91505092915050565b6000819050919050565b600061064e610649610644846103af565b610629565b6103af565b9050919050565b600061066082610633565b9050919050565b600061067282610655565b9050919050565b61068281610667565b82525050565b61069181610453565b82525050565b60006106a282610655565b9050919050565b6106b281610697565b82525050565b6106c1816104c7565b82525050565b600082825260208201905092915050565b600080fd5b82818337600083830152505050565b60006106f883856106c7565b93507f07ffffffffffffffffffffffffffffffffffffffffffffffffffffffffffffff83111561072b5761072a6106d8565b5b60208302925061073c8385846106dd565b82840190509392505050565b600060a08201905061075d6000830189610679565b61076a6020830188610688565b61077760408301876106a9565b61078460608301866106b8565b81810360808301526107978184866106ec565b9050979650505050505050565b600082825260208201905092915050565b7f455243313136373a20637265617465206661696c656400000000000000000000600082015250565b60006107eb6016836107a4565b91506107f6826107b5565b602082019050919050565b6000602082019050818103600083015261081a816107de565b905091905056fea2646970667358221220a546e96ec6767c3c572a26720bb379ca81fb1091481b105d2df405b7b612b5d264736f6c634300080b0033",
  "linkReferences": {},
  "deployedLinkReferences": {}
}