{
  "_format": "hh-sol-artifact-1",
  "contractName": "PrivateLotteryFactory",
  "sourceName": "contracts/PrivateLotteryFactory.sol",
  "abi": [
    {
      "inputs": [
        {
          "internalType": "address",
          "name": "_proxyContract",
          "type": "address"
        },
        {
          "internalType": "address",
          "name": "_verifierContract",
          "type": "address"
        }
      ],
      "stateMutability": "nonpayable",
      "type": "constructor"
    },
    {
      "anonymous": false,
      "inputs": [
        {
          "indexed": false,
          "internalType": "address",
          "name": "lotteryContract",
          "type": "address"
        }
      ],
      "name": "BlindAuctionCloneCreated",
      "type": "event"
    },
    {
      "inputs": [
        {
          "internalType": "uint256",
          "name": "",
          "type": "uint256"
        }
      ],
      "name": "AirdropContractAddresses",
      "outputs": [
        {
          "internalType": "address",
          "name": "",
          "type": "address"
        }
      ],
      "stateMutability": "view",
      "type": "function"
    },
    {
      "inputs": [
        {
          "internalType": "contract IERC721NFT",
          "name": "_airdrop",
          "type": "address"
        },
        {
          "internalType": "contract IPlonkVerifier",
          "name": "_verifier",
          "type": "address"
        },
        {
          "internalType": "bytes32",
          "name": "_root",
          "type": "bytes32"
        },
        {
          "internalType": "uint256[]",
          "name": "_commitments",
          "type": "uint256[]"
        }
      ],
      "name": "createLottery",
      "outputs": [
        {
          "internalType": "address",
          "name": "lotteryContract",
          "type": "address"
        }
      ],
      "stateMutability": "payable",
      "type": "function"
    },
    {
      "inputs": [],
      "name": "proxyContract",
      "outputs": [
        {
          "internalType": "address",
          "name": "",
          "type": "address"
        }
      ],
      "stateMutability": "view",
      "type": "function"
    },
    {
      "inputs": [],
      "name": "verifierContract",
      "outputs": [
        {
          "internalType": "address",
          "name": "",
          "type": "address"
        }
      ],
      "stateMutability": "view",
      "type": "function"
    }
  ],
  "bytecode": "0x608060405234801561001057600080fd5b506040516109923803806109928339818101604052810190610032919061011e565b81600160006101000a81548173ffffffffffffffffffffffffffffffffffffffff021916908373ffffffffffffffffffffffffffffffffffffffff16021790555080600260006101000a81548173ffffffffffffffffffffffffffffffffffffffff021916908373ffffffffffffffffffffffffffffffffffffffff160217905550505061015e565b600080fd5b600073ffffffffffffffffffffffffffffffffffffffff82169050919050565b60006100eb826100c0565b9050919050565b6100fb816100e0565b811461010657600080fd5b50565b600081519050610118816100f2565b92915050565b60008060408385031215610135576101346100bb565b5b600061014385828601610109565b925050602061015485828601610109565b9150509250929050565b6108258061016d6000396000f3fe60806040526004361061003f5760003560e01c80639f43ca5014610044578063cf69568814610074578063e22d158f1461009f578063ed550443146100dc575b600080fd5b61005e600480360381019061005991906104ff565b610107565b60405161006b9190610596565b60405180910390f35b34801561008057600080fd5b5061008961024c565b6040516100969190610596565b60405180910390f35b3480156100ab57600080fd5b506100c660048036038101906100c191906105e7565b610272565b6040516100d39190610596565b60405180910390f35b3480156100e857600080fd5b506100f16102b1565b6040516100fe9190610596565b60405180910390f35b6000610134600160009054906101000a900473ffffffffffffffffffffffffffffffffffffffff166102d7565b90508073ffffffffffffffffffffffffffffffffffffffff1663356b004e87878787876040518663ffffffff1660e01b8152600401610177959493929190610724565b600060405180830381600087803b15801561019157600080fd5b505af11580156101a5573d6000803e3d6000fd5b505050506000819080600181540180825580915050600190039060005260206000200160009091909190916101000a81548173ffffffffffffffffffffffffffffffffffffffff021916908373ffffffffffffffffffffffffffffffffffffffff1602179055507f0222c3cd5c90b8efcce85fbd83fa37c0dda170d259d53470eadd64b22edc67188160405161023b9190610596565b60405180910390a195945050505050565b600260009054906101000a900473ffffffffffffffffffffffffffffffffffffffff1681565b6000818154811061028257600080fd5b906000526020600020016000915054906101000a900473ffffffffffffffffffffffffffffffffffffffff1681565b600160009054906101000a900473ffffffffffffffffffffffffffffffffffffffff1681565b60006040517f3d602d80600a3d3981f3363d3d373d3d3d363d7300000000000000000000000081528260601b60148201527f5af43d82803e903d91602b57fd5bf3000000000000000000000000000000000060288201526037816000f0915050600073ffffffffffffffffffffffffffffffffffffffff168173ffffffffffffffffffffffffffffffffffffffff1614156103a7576040517f08c379a000000000000000000000000000000000000000000000000000000000815260040161039e906107cf565b60405180910390fd5b919050565b600080fd5b600080fd5b600073ffffffffffffffffffffffffffffffffffffffff82169050919050565b60006103e1826103b6565b9050919050565b60006103f3826103d6565b9050919050565b610403816103e8565b811461040e57600080fd5b50565b600081359050610420816103fa565b92915050565b6000610431826103d6565b9050919050565b61044181610426565b811461044c57600080fd5b50565b60008135905061045e81610438565b92915050565b6000819050919050565b61047781610464565b811461048257600080fd5b50565b6000813590506104948161046e565b92915050565b600080fd5b600080fd5b600080fd5b60008083601f8401126104bf576104be61049a565b5b8235905067ffffffffffffffff8111156104dc576104db61049f565b5b6020830191508360208202830111156104f8576104f76104a4565b5b9250929050565b60008060008060006080868803121561051b5761051a6103ac565b5b600061052988828901610411565b955050602061053a8882890161044f565b945050604061054b88828901610485565b935050606086013567ffffffffffffffff81111561056c5761056b6103b1565b5b610578888289016104a9565b92509250509295509295909350565b610590816103d6565b82525050565b60006020820190506105ab6000830184610587565b92915050565b6000819050919050565b6105c4816105b1565b81146105cf57600080fd5b50565b6000813590506105e1816105bb565b92915050565b6000602082840312156105fd576105fc6103ac565b5b600061060b848285016105d2565b91505092915050565b6000819050919050565b600061063961063461062f846103b6565b610614565b6103b6565b9050919050565b600061064b8261061e565b9050919050565b600061065d82610640565b9050919050565b61066d81610652565b82525050565b600061067e82610640565b9050919050565b61068e81610673565b82525050565b61069d81610464565b82525050565b600082825260208201905092915050565b600080fd5b82818337600083830152505050565b60006106d483856106a3565b93507f07ffffffffffffffffffffffffffffffffffffffffffffffffffffffffffffff831115610707576107066106b4565b5b6020830292506107188385846106b9565b82840190509392505050565b60006080820190506107396000830188610664565b6107466020830187610685565b6107536040830186610694565b81810360608301526107668184866106c8565b90509695505050505050565b600082825260208201905092915050565b7f455243313136373a20637265617465206661696c656400000000000000000000600082015250565b60006107b9601683610772565b91506107c482610783565b602082019050919050565b600060208201905081810360008301526107e8816107ac565b905091905056fea2646970667358221220875ff32ef72233560bc1887d9c8b9a21fad0ff5295191d541f50bc680925275a64736f6c634300080b0033",
  "linkReferences": {},
  "deployedLinkReferences": {}
}