{
  "_format": "hh-sol-artifact-1",
  "contractName": "PrivateLottery",
  "sourceName": "contracts/PrivateLottery.sol",
  "abi": [
    {
      "anonymous": false,
      "inputs": [
        {
          "indexed": true,
          "internalType": "address",
          "name": "previousOwner",
          "type": "address"
        },
        {
          "indexed": true,
          "internalType": "address",
          "name": "newOwner",
          "type": "address"
        }
      ],
      "name": "OwnershipTransferred",
      "type": "event"
    },
    {
      "inputs": [
        {
          "internalType": "uint256",
          "name": "",
          "type": "uint256"
        }
      ],
      "name": "Eligible",
      "outputs": [
        {
          "internalType": "bool",
          "name": "",
          "type": "bool"
        }
      ],
      "stateMutability": "view",
      "type": "function"
    },
    {
      "inputs": [
        {
          "internalType": "uint256",
          "name": "",
          "type": "uint256"
        }
      ],
      "name": "_randomNumbers",
      "outputs": [
        {
          "internalType": "uint256",
          "name": "",
          "type": "uint256"
        }
      ],
      "stateMutability": "view",
      "type": "function"
    },
    {
      "inputs": [],
      "name": "airdrop",
      "outputs": [
        {
          "internalType": "contract IERC20",
          "name": "",
          "type": "address"
        }
      ],
      "stateMutability": "view",
      "type": "function"
    },
    {
      "inputs": [],
      "name": "amount",
      "outputs": [
        {
          "internalType": "uint256",
          "name": "",
          "type": "uint256"
        }
      ],
      "stateMutability": "view",
      "type": "function"
    },
    {
      "inputs": [],
      "name": "chooseRandomIndex",
      "outputs": [
        {
          "internalType": "uint256",
          "name": "",
          "type": "uint256"
        }
      ],
      "stateMutability": "view",
      "type": "function"
    },
    {
      "inputs": [
        {
          "internalType": "uint256",
          "name": "commitment",
          "type": "uint256"
        },
        {
          "internalType": "bytes",
          "name": "proof",
          "type": "bytes"
        },
        {
          "internalType": "bytes32",
          "name": "nullifierHash",
          "type": "bytes32"
        }
      ],
      "name": "collectAirdrop",
      "outputs": [],
      "stateMutability": "nonpayable",
      "type": "function"
    },
    {
      "inputs": [],
      "name": "getAllCommitments",
      "outputs": [
        {
          "internalType": "uint256[]",
          "name": "",
          "type": "uint256[]"
        }
      ],
      "stateMutability": "view",
      "type": "function"
    },
    {
      "inputs": [
        {
          "internalType": "uint256",
          "name": "_commitment",
          "type": "uint256"
        }
      ],
      "name": "getEligible",
      "outputs": [
        {
          "internalType": "bool",
          "name": "",
          "type": "bool"
        }
      ],
      "stateMutability": "view",
      "type": "function"
    },
    {
      "inputs": [],
      "name": "getRandomCommitment",
      "outputs": [
        {
          "internalType": "uint256[]",
          "name": "",
          "type": "uint256[]"
        }
      ],
      "stateMutability": "view",
      "type": "function"
    },
    {
      "inputs": [],
      "name": "getRandomIndexes",
      "outputs": [
        {
          "internalType": "uint256[]",
          "name": "",
          "type": "uint256[]"
        }
      ],
      "stateMutability": "view",
      "type": "function"
    },
    {
      "inputs": [
        {
          "internalType": "contract IERC20",
          "name": "_airdrop",
          "type": "address"
        },
        {
          "internalType": "uint256",
          "name": "_amount",
          "type": "uint256"
        },
        {
          "internalType": "contract IPlonkVerifier",
          "name": "_verifier",
          "type": "address"
        },
        {
          "internalType": "bytes32",
          "name": "_root",
          "type": "bytes32"
        },
        {
          "internalType": "uint256[]",
          "name": "_commitments",
          "type": "uint256[]"
        }
      ],
      "name": "initialize",
      "outputs": [],
      "stateMutability": "nonpayable",
      "type": "function"
    },
    {
      "inputs": [
        {
          "internalType": "bytes32",
          "name": "",
          "type": "bytes32"
        }
      ],
      "name": "nullifierSpent",
      "outputs": [
        {
          "internalType": "bool",
          "name": "",
          "type": "bool"
        }
      ],
      "stateMutability": "view",
      "type": "function"
    },
    {
      "inputs": [],
      "name": "owner",
      "outputs": [
        {
          "internalType": "address",
          "name": "",
          "type": "address"
        }
      ],
      "stateMutability": "view",
      "type": "function"
    },
    {
      "inputs": [],
      "name": "renounceOwnership",
      "outputs": [],
      "stateMutability": "nonpayable",
      "type": "function"
    },
    {
      "inputs": [],
      "name": "root",
      "outputs": [
        {
          "internalType": "bytes32",
          "name": "",
          "type": "bytes32"
        }
      ],
      "stateMutability": "view",
      "type": "function"
    },
    {
      "inputs": [
        {
          "internalType": "uint256",
          "name": "_commitment",
          "type": "uint256"
        }
      ],
      "name": "setEligible",
      "outputs": [],
      "stateMutability": "nonpayable",
      "type": "function"
    },
    {
      "inputs": [],
      "name": "setRandomCommitment",
      "outputs": [
        {
          "internalType": "uint256[]",
          "name": "",
          "type": "uint256[]"
        }
      ],
      "stateMutability": "nonpayable",
      "type": "function"
    },
    {
      "inputs": [],
      "name": "setRandomIndexes",
      "outputs": [
        {
          "internalType": "uint256[]",
          "name": "",
          "type": "uint256[]"
        }
      ],
      "stateMutability": "nonpayable",
      "type": "function"
    },
    {
      "inputs": [
        {
          "internalType": "address",
          "name": "newOwner",
          "type": "address"
        }
      ],
      "name": "transferOwnership",
      "outputs": [],
      "stateMutability": "nonpayable",
      "type": "function"
    }
  ],
  "bytecode": "0x608060405234801561001057600080fd5b5061002d61002261003260201b60201c565b61003a60201b60201c565b6100fe565b600033905090565b60008060009054906101000a900473ffffffffffffffffffffffffffffffffffffffff169050816000806101000a81548173ffffffffffffffffffffffffffffffffffffffff021916908373ffffffffffffffffffffffffffffffffffffffff1602179055508173ffffffffffffffffffffffffffffffffffffffff168173ffffffffffffffffffffffffffffffffffffffff167f8be0079c531659141344cd1fd0a4f28419497f9722a3daafe3b4186f6b6457e060405160405180910390a35050565b611d058061010d6000396000f3fe608060405234801561001057600080fd5b50600436106101215760003560e01c80638c55af1d116100ad578063c58c353711610071578063c58c3537146102e8578063dd48f31714610306578063e3650d5414610336578063ebf0c71714610352578063f2fde38b1461037057610121565b80638c55af1d146102545780638da5cb5b14610272578063a79b9fb314610290578063aa8c217c146102ae578063aefa3e84146102cc57610121565b8063540d393d116100f4578063540d393d146101ae57806356271245146101cc578063715018a6146101ea57806378092c9b146101f457806379c6cba61461022457610121565b80632c0ee3c4146101265780633884d6351461014457806338c8691114610162578063430ca7ab14610192575b600080fd5b61012e61038c565b60405161013b919061111c565b60405180910390f35b61014c6103e4565b60405161015991906111bd565b60405180910390f35b61017c60048036038101906101779190611218565b61040a565b6040516101899190611260565b60405180910390f35b6101ac60048036038101906101a7919061130c565b61042a565b005b6101b66107bc565b6040516101c3919061138f565b60405180910390f35b6101d46107e0565b6040516101e1919061111c565b60405180910390f35b6101f2610981565b005b61020e600480360381019061020991906113aa565b610a09565b60405161021b9190611260565b60405180910390f35b61023e600480360381019061023991906113aa565b610a29565b60405161024b919061138f565b60405180910390f35b61025c610a4d565b604051610269919061111c565b60405180910390f35b61027a610af2565b60405161028791906113f8565b60405180910390f35b610298610b1b565b6040516102a5919061111c565b60405180910390f35b6102b6610b73565b6040516102c3919061138f565b60405180910390f35b6102e660048036038101906102e191906114e5565b610b79565b005b6102f0610d08565b6040516102fd919061111c565b60405180910390f35b610320600480360381019061031b91906113aa565b610d60565b60405161032d9190611260565b60405180910390f35b610350600480360381019061034b91906113aa565b610d8a565b005b61035a610db9565b604051610367919061158e565b60405180910390f35b61038a600480360381019061038591906115d5565b610dbf565b005b606060058054806020026020016040519081016040528092919081815260200182805480156103da57602002820191906000526020600020905b8154815260200190600101908083116103c6575b5050505050905090565b600160009054906101000a900473ffffffffffffffffffffffffffffffffffffffff1681565b60086020528060005260406000206000915054906101000a900460ff1681565b61043384610d60565b610472576040517f08c379a000000000000000000000000000000000000000000000000000000000815260040161046990611685565b60405180910390fd5b7f30644e72e131a029b85045b68181585d2833e84879b9709143e1f593f00000018160001c106104d7576040517f08c379a00000000000000000000000000000000000000000000000000000000081526004016104ce90611717565b60405180910390fd5b6008600082815260200190815260200160002060009054906101000a900460ff1615610538576040517f08c379a000000000000000000000000000000000000000000000000000000000815260040161052f90611783565b60405180910390fd5b6000600367ffffffffffffffff811115610555576105546117a3565b5b6040519080825280602002602001820160405280156105835781602001602082028036833780820191505090505b50905060045460001c816000815181106105a05761059f6117d2565b5b6020026020010181815250508160001c816001815181106105c4576105c36117d2565b5b6020026020010181815250503373ffffffffffffffffffffffffffffffffffffffff16816002815181106105fb576105fa6117d2565b5b602002602001018181525050600360009054906101000a900473ffffffffffffffffffffffffffffffffffffffff1673ffffffffffffffffffffffffffffffffffffffff16631e8e1e138585846040518463ffffffff1660e01b81526004016106669392919061185f565b602060405180830381865afa158015610683573d6000803e3d6000fd5b505050506040513d601f19601f820116820180604052508101906106a791906118c4565b6106e6576040517f08c379a00000000000000000000000000000000000000000000000000000000081526004016106dd9061193d565b60405180910390fd5b60016008600084815260200190815260200160002060006101000a81548160ff021916908315150217905550600160009054906101000a900473ffffffffffffffffffffffffffffffffffffffff1673ffffffffffffffffffffffffffffffffffffffff1663a9059cbb336002546040518363ffffffff1660e01b815260040161077192919061195d565b6020604051808303816000875af1158015610790573d6000803e3d6000fd5b505050506040513d601f19601f820116820180604052508101906107b491906118c4565b505050505050565b6000806005805490506107cd610eb7565b6107d791906119b5565b90508091505090565b606060005b60026005805490506107f79190611a15565b81101561092a5760006108086107bc565b90506000600782815481106108205761081f6117d2565b5b90600052602060002001549050600760016007805490506108419190611a46565b81548110610852576108516117d2565b5b906000526020600020015460078381548110610871576108706117d2565b5b9060005260206000200181905550600780548061089157610890611a7a565b5b600190038181906000526020600020016000905590556108ce600582815481106108be576108bd6117d2565b5b9060005260206000200154610d8a565b6006600582815481106108e4576108e36117d2565b5b906000526020600020015490806001815401808255809150506001900390600052602060002001600090919091909150555050808061092290611aa9565b9150506107e5565b50600680548060200260200160405190810160405280929190818152602001828054801561097757602002820191906000526020600020905b815481526020019060010190808311610963575b5050505050905090565b610989610eea565b73ffffffffffffffffffffffffffffffffffffffff166109a7610af2565b73ffffffffffffffffffffffffffffffffffffffff16146109fd576040517f08c379a00000000000000000000000000000000000000000000000000000000081526004016109f490611b3e565b60405180910390fd5b610a076000610ef2565b565b60096020528060005260406000206000915054906101000a900460ff1681565b60078181548110610a3957600080fd5b906000526020600020016000915090505481565b606060005b600580549050811015610a9b5760078190806001815401808255809150506001900390600052602060002001600090919091909150558080610a9390611aa9565b915050610a52565b506007805480602002602001604051908101604052809291908181526020018280548015610ae857602002820191906000526020600020905b815481526020019060010190808311610ad4575b5050505050905090565b60008060009054906101000a900473ffffffffffffffffffffffffffffffffffffffff16905090565b60606006805480602002602001604051908101604052809291908181526020018280548015610b6957602002820191906000526020600020905b815481526020019060010190808311610b55575b5050505050905090565b60025481565b600060159054906101000a900460ff16610ba357600060149054906101000a900460ff1615610bac565b610bab610fb6565b5b610beb576040517f08c379a0000000000000000000000000000000000000000000000000000000008152600401610be290611bd0565b60405180910390fd5b60008060159054906101000a900460ff161590508015610c3c576001600060156101000a81548160ff0219169083151502179055506001600060146101000a81548160ff0219169083151502179055505b86600160006101000a81548173ffffffffffffffffffffffffffffffffffffffff021916908373ffffffffffffffffffffffffffffffffffffffff1602179055508560028190555084600360006101000a81548173ffffffffffffffffffffffffffffffffffffffff021916908373ffffffffffffffffffffffffffffffffffffffff16021790555083600481905550828260059190610cdd929190610fea565b508015610cff5760008060156101000a81548160ff0219169083151502179055505b50505050505050565b60606007805480602002602001604051908101604052809291908181526020018280548015610d5657602002820191906000526020600020905b815481526020019060010190808311610d42575b5050505050905090565b60006009600083815260200190815260200160002060009054906101000a900460ff169050919050565b60016009600083815260200190815260200160002060006101000a81548160ff02191690831515021790555050565b60045481565b610dc7610eea565b73ffffffffffffffffffffffffffffffffffffffff16610de5610af2565b73ffffffffffffffffffffffffffffffffffffffff1614610e3b576040517f08c379a0000000000000000000000000000000000000000000000000000000008152600401610e3290611b3e565b60405180910390fd5b600073ffffffffffffffffffffffffffffffffffffffff168173ffffffffffffffffffffffffffffffffffffffff161415610eab576040517f08c379a0000000000000000000000000000000000000000000000000000000008152600401610ea290611c62565b60405180910390fd5b610eb481610ef2565b50565b60004442604051602001610ecc929190611ca3565b6040516020818303038152906040528051906020012060001c905090565b600033905090565b60008060009054906101000a900473ffffffffffffffffffffffffffffffffffffffff169050816000806101000a81548173ffffffffffffffffffffffffffffffffffffffff021916908373ffffffffffffffffffffffffffffffffffffffff1602179055508173ffffffffffffffffffffffffffffffffffffffff168173ffffffffffffffffffffffffffffffffffffffff167f8be0079c531659141344cd1fd0a4f28419497f9722a3daafe3b4186f6b6457e060405160405180910390a35050565b6000610fc130610fc7565b15905090565b6000808273ffffffffffffffffffffffffffffffffffffffff163b119050919050565b828054828255906000526020600020908101928215611026579160200282015b8281111561102557823582559160200191906001019061100a565b5b5090506110339190611037565b5090565b5b80821115611050576000816000905550600101611038565b5090565b600081519050919050565b600082825260208201905092915050565b6000819050602082019050919050565b6000819050919050565b61109381611080565b82525050565b60006110a5838361108a565b60208301905092915050565b6000602082019050919050565b60006110c982611054565b6110d3818561105f565b93506110de83611070565b8060005b8381101561110f5781516110f68882611099565b9750611101836110b1565b9250506001810190506110e2565b5085935050505092915050565b6000602082019050818103600083015261113681846110be565b905092915050565b600073ffffffffffffffffffffffffffffffffffffffff82169050919050565b6000819050919050565b600061118361117e6111798461113e565b61115e565b61113e565b9050919050565b600061119582611168565b9050919050565b60006111a78261118a565b9050919050565b6111b78161119c565b82525050565b60006020820190506111d260008301846111ae565b92915050565b600080fd5b600080fd5b6000819050919050565b6111f5816111e2565b811461120057600080fd5b50565b600081359050611212816111ec565b92915050565b60006020828403121561122e5761122d6111d8565b5b600061123c84828501611203565b91505092915050565b60008115159050919050565b61125a81611245565b82525050565b60006020820190506112756000830184611251565b92915050565b61128481611080565b811461128f57600080fd5b50565b6000813590506112a18161127b565b92915050565b600080fd5b600080fd5b600080fd5b60008083601f8401126112cc576112cb6112a7565b5b8235905067ffffffffffffffff8111156112e9576112e86112ac565b5b602083019150836001820283011115611305576113046112b1565b5b9250929050565b60008060008060608587031215611326576113256111d8565b5b600061133487828801611292565b945050602085013567ffffffffffffffff811115611355576113546111dd565b5b611361878288016112b6565b9350935050604061137487828801611203565b91505092959194509250565b61138981611080565b82525050565b60006020820190506113a46000830184611380565b92915050565b6000602082840312156113c0576113bf6111d8565b5b60006113ce84828501611292565b91505092915050565b60006113e28261113e565b9050919050565b6113f2816113d7565b82525050565b600060208201905061140d60008301846113e9565b92915050565b600061141e826113d7565b9050919050565b61142e81611413565b811461143957600080fd5b50565b60008135905061144b81611425565b92915050565b600061145c826113d7565b9050919050565b61146c81611451565b811461147757600080fd5b50565b60008135905061148981611463565b92915050565b60008083601f8401126114a5576114a46112a7565b5b8235905067ffffffffffffffff8111156114c2576114c16112ac565b5b6020830191508360208202830111156114de576114dd6112b1565b5b9250929050565b60008060008060008060a08789031215611502576115016111d8565b5b600061151089828a0161143c565b965050602061152189828a01611292565b955050604061153289828a0161147a565b945050606061154389828a01611203565b935050608087013567ffffffffffffffff811115611564576115636111dd565b5b61157089828a0161148f565b92509250509295509295509295565b611588816111e2565b82525050565b60006020820190506115a3600083018461157f565b92915050565b6115b2816113d7565b81146115bd57600080fd5b50565b6000813590506115cf816115a9565b92915050565b6000602082840312156115eb576115ea6111d8565b5b60006115f9848285016115c0565b91505092915050565b600082825260208201905092915050565b7f436f6d6d69746d656e74206973206e6f7420696e2074686520656c696769626960008201527f6c69747920736574000000000000000000000000000000000000000000000000602082015250565b600061166f602883611602565b915061167a82611613565b604082019050919050565b6000602082019050818103600083015261169e81611662565b9050919050565b7f4e756c6c6966696572206973206e6f742077697468696e20746865206669656c60008201527f6400000000000000000000000000000000000000000000000000000000000000602082015250565b6000611701602183611602565b915061170c826116a5565b604082019050919050565b60006020820190508181036000830152611730816116f4565b9050919050565b7f41697264726f7020616c72656164792072656465656d65640000000000000000600082015250565b600061176d601883611602565b915061177882611737565b602082019050919050565b6000602082019050818103600083015261179c81611760565b9050919050565b7f4e487b7100000000000000000000000000000000000000000000000000000000600052604160045260246000fd5b7f4e487b7100000000000000000000000000000000000000000000000000000000600052603260045260246000fd5b600082825260208201905092915050565b82818337600083830152505050565b6000601f19601f8301169050919050565b600061183e8385611801565b935061184b838584611812565b61185483611821565b840190509392505050565b6000604082019050818103600083015261187a818587611832565b9050818103602083015261188e81846110be565b9050949350505050565b6118a181611245565b81146118ac57600080fd5b50565b6000815190506118be81611898565b92915050565b6000602082840312156118da576118d96111d8565b5b60006118e8848285016118af565b91505092915050565b7f50726f6f6620766572696669636174696f6e206661696c656400000000000000600082015250565b6000611927601983611602565b9150611932826118f1565b602082019050919050565b600060208201905081810360008301526119568161191a565b9050919050565b600060408201905061197260008301856113e9565b61197f6020830184611380565b9392505050565b7f4e487b7100000000000000000000000000000000000000000000000000000000600052601260045260246000fd5b60006119c082611080565b91506119cb83611080565b9250826119db576119da611986565b5b828206905092915050565b7f4e487b7100000000000000000000000000000000000000000000000000000000600052601160045260246000fd5b6000611a2082611080565b9150611a2b83611080565b925082611a3b57611a3a611986565b5b828204905092915050565b6000611a5182611080565b9150611a5c83611080565b925082821015611a6f57611a6e6119e6565b5b828203905092915050565b7f4e487b7100000000000000000000000000000000000000000000000000000000600052603160045260246000fd5b6000611ab482611080565b91507fffffffffffffffffffffffffffffffffffffffffffffffffffffffffffffffff821415611ae757611ae66119e6565b5b600182019050919050565b7f4f776e61626c653a2063616c6c6572206973206e6f7420746865206f776e6572600082015250565b6000611b28602083611602565b9150611b3382611af2565b602082019050919050565b60006020820190508181036000830152611b5781611b1b565b9050919050565b7f496e697469616c697a61626c653a20636f6e747261637420697320616c72656160008201527f647920696e697469616c697a6564000000000000000000000000000000000000602082015250565b6000611bba602e83611602565b9150611bc582611b5e565b604082019050919050565b60006020820190508181036000830152611be981611bad565b9050919050565b7f4f776e61626c653a206e6577206f776e657220697320746865207a65726f206160008201527f6464726573730000000000000000000000000000000000000000000000000000602082015250565b6000611c4c602683611602565b9150611c5782611bf0565b604082019050919050565b60006020820190508181036000830152611c7b81611c3f565b9050919050565b6000819050919050565b611c9d611c9882611080565b611c82565b82525050565b6000611caf8285611c8c565b602082019150611cbf8284611c8c565b602082019150819050939250505056fea264697066735822122015ea6f5c5eb105a8cade657289280fbab1078368a111a5f933497057bd919c1964736f6c634300080b0033",
  "linkReferences": {},
  "deployedLinkReferences": {}
}