{
  "_format": "hh-sol-artifact-1",
  "contractName": "Airdrop",
  "sourceName": "contracts/Airdrop.sol",
  "abi": [
    {
      "inputs": [
        {
          "internalType": "contract IERC20",
          "name": "_airdropToken",
          "type": "address"
        },
        {
          "internalType": "uint256",
          "name": "_amountPerRedemption",
          "type": "uint256"
        },
        {
          "internalType": "contract IPlonkVerifier",
          "name": "_verifier",
          "type": "address"
        },
        {
          "internalType": "bytes32",
          "name": "_root",
          "type": "bytes32"
        }
      ],
      "stateMutability": "nonpayable",
      "type": "constructor"
    },
    {
      "anonymous": false,
      "inputs": [
        {
          "indexed": true,
          "internalType": "address",
          "name": "previousOwner",
          "type": "address"
        },
        {
          "indexed": true,
          "internalType": "address",
          "name": "newOwner",
          "type": "address"
        }
      ],
      "name": "OwnershipTransferred",
      "type": "event"
    },
    {
      "inputs": [],
      "name": "airdropToken",
      "outputs": [
        {
          "internalType": "contract IERC20",
          "name": "",
          "type": "address"
        }
      ],
      "stateMutability": "view",
      "type": "function"
    },
    {
      "inputs": [],
      "name": "amountPerRedemption",
      "outputs": [
        {
          "internalType": "uint256",
          "name": "",
          "type": "uint256"
        }
      ],
      "stateMutability": "view",
      "type": "function"
    },
    {
      "inputs": [
        {
          "internalType": "bytes",
          "name": "proof",
          "type": "bytes"
        },
        {
          "internalType": "bytes32",
          "name": "nullifierHash",
          "type": "bytes32"
        }
      ],
      "name": "collectAirdrop",
      "outputs": [],
      "stateMutability": "nonpayable",
      "type": "function"
    },
    {
      "inputs": [
        {
          "internalType": "bytes32",
          "name": "",
          "type": "bytes32"
        }
      ],
      "name": "nullifierSpent",
      "outputs": [
        {
          "internalType": "bool",
          "name": "",
          "type": "bool"
        }
      ],
      "stateMutability": "view",
      "type": "function"
    },
    {
      "inputs": [],
      "name": "owner",
      "outputs": [
        {
          "internalType": "address",
          "name": "",
          "type": "address"
        }
      ],
      "stateMutability": "view",
      "type": "function"
    },
    {
      "inputs": [],
      "name": "renounceOwnership",
      "outputs": [],
      "stateMutability": "nonpayable",
      "type": "function"
    },
    {
      "inputs": [],
      "name": "root",
      "outputs": [
        {
          "internalType": "bytes32",
          "name": "",
          "type": "bytes32"
        }
      ],
      "stateMutability": "view",
      "type": "function"
    },
    {
      "inputs": [
        {
          "internalType": "address",
          "name": "newOwner",
          "type": "address"
        }
      ],
      "name": "transferOwnership",
      "outputs": [],
      "stateMutability": "nonpayable",
      "type": "function"
    },
    {
      "inputs": [
        {
          "internalType": "bytes32",
          "name": "newRoot",
          "type": "bytes32"
        }
      ],
      "name": "updateRoot",
      "outputs": [],
      "stateMutability": "nonpayable",
      "type": "function"
    }
  ],
  "bytecode": "0x60806040523480156200001157600080fd5b506040516200133138038062001331833981810160405281019062000037919062000219565b620000576200004b620000f160201b60201c565b620000f960201b60201c565b83600160006101000a81548173ffffffffffffffffffffffffffffffffffffffff021916908373ffffffffffffffffffffffffffffffffffffffff1602179055508260028190555081600360006101000a81548173ffffffffffffffffffffffffffffffffffffffff021916908373ffffffffffffffffffffffffffffffffffffffff16021790555080600481905550505050506200035d565b600033905090565b60008060009054906101000a900473ffffffffffffffffffffffffffffffffffffffff169050816000806101000a81548173ffffffffffffffffffffffffffffffffffffffff021916908373ffffffffffffffffffffffffffffffffffffffff1602179055508173ffffffffffffffffffffffffffffffffffffffff168173ffffffffffffffffffffffffffffffffffffffff167f8be0079c531659141344cd1fd0a4f28419497f9722a3daafe3b4186f6b6457e060405160405180910390a35050565b600081519050620001ce81620002f5565b92915050565b600081519050620001e5816200030f565b92915050565b600081519050620001fc8162000329565b92915050565b600081519050620002138162000343565b92915050565b600080600080608085870312156200023057600080fd5b60006200024087828801620001d4565b9450506020620002538782880162000202565b93505060406200026687828801620001eb565b92505060606200027987828801620001bd565b91505092959194509250565b60006200029282620002cb565b9050919050565b6000819050919050565b6000620002b08262000285565b9050919050565b6000620002c48262000285565b9050919050565b600073ffffffffffffffffffffffffffffffffffffffff82169050919050565b6000819050919050565b620003008162000299565b81146200030c57600080fd5b50565b6200031a81620002a3565b81146200032657600080fd5b50565b6200033481620002b7565b81146200034057600080fd5b50565b6200034e81620002eb565b81146200035a57600080fd5b50565b610fc4806200036d6000396000f3fe608060405234801561001057600080fd5b50600436106100935760003560e01c8063715018a611610066578063715018a61461011e5780637f0d7159146101285780638da5cb5b14610146578063ebf0c71714610164578063f2fde38b1461018257610093565b8063213e0b171461009857806321ff9970146100b457806338c86911146100d05780634d06068a14610100575b600080fd5b6100b260048036038101906100ad91906109ee565b61019e565b005b6100ce60048036038101906100c991906109c5565b61059d565b005b6100ea60048036038101906100e591906109c5565b610623565b6040516100f79190610d13565b60405180910390f35b610108610643565b6040516101159190610d82565b60405180910390f35b610126610669565b005b6101306106f1565b60405161013d9190610e3d565b60405180910390f35b61014e6106f7565b60405161015b9190610ccf565b60405180910390f35b61016c610720565b6040516101799190610d2e565b60405180910390f35b61019c60048036038101906101979190610973565b610726565b005b7f30644e72e131a029b85045b68181585d2833e84879b9709143e1f593f00000018160001c10610203576040517f08c379a00000000000000000000000000000000000000000000000000000000081526004016101fa90610dfd565b60405180910390fd5b6005600082815260200190815260200160002060009054906101000a900460ff1615610264576040517f08c379a000000000000000000000000000000000000000000000000000000000815260040161025b90610dbd565b60405180910390fd5b6000600367ffffffffffffffff8111156102a7577f4e487b7100000000000000000000000000000000000000000000000000000000600052604160045260246000fd5b6040519080825280602002602001820160405280156102d55781602001602082028036833780820191505090505b50905060045460001c81600081518110610318577f4e487b7100000000000000000000000000000000000000000000000000000000600052603260045260246000fd5b6020026020010181815250508160001c81600181518110610362577f4e487b7100000000000000000000000000000000000000000000000000000000600052603260045260246000fd5b6020026020010181815250503373ffffffffffffffffffffffffffffffffffffffff16816002815181106103bf577f4e487b7100000000000000000000000000000000000000000000000000000000600052603260045260246000fd5b602002602001018181525050600360009054906101000a900473ffffffffffffffffffffffffffffffffffffffff1673ffffffffffffffffffffffffffffffffffffffff16631e8e1e138585846040518463ffffffff1660e01b815260040161042a93929190610d49565b60206040518083038186803b15801561044257600080fd5b505afa158015610456573d6000803e3d6000fd5b505050506040513d601f19601f8201168201806040525081019061047a919061099c565b6104b9576040517f08c379a00000000000000000000000000000000000000000000000000000000081526004016104b090610ddd565b60405180910390fd5b60016005600084815260200190815260200160002060006101000a81548160ff021916908315150217905550600160009054906101000a900473ffffffffffffffffffffffffffffffffffffffff1673ffffffffffffffffffffffffffffffffffffffff1663a9059cbb336002546040518363ffffffff1660e01b8152600401610544929190610cea565b602060405180830381600087803b15801561055e57600080fd5b505af1158015610572573d6000803e3d6000fd5b505050506040513d601f19601f82011682018060405250810190610596919061099c565b5050505050565b6105a561081e565b73ffffffffffffffffffffffffffffffffffffffff166105c36106f7565b73ffffffffffffffffffffffffffffffffffffffff1614610619576040517f08c379a000000000000000000000000000000000000000000000000000000000815260040161061090610e1d565b60405180910390fd5b8060048190555050565b60056020528060005260406000206000915054906101000a900460ff1681565b600160009054906101000a900473ffffffffffffffffffffffffffffffffffffffff1681565b61067161081e565b73ffffffffffffffffffffffffffffffffffffffff1661068f6106f7565b73ffffffffffffffffffffffffffffffffffffffff16146106e5576040517f08c379a00000000000000000000000000000000000000000000000000000000081526004016106dc90610e1d565b60405180910390fd5b6106ef6000610826565b565b60025481565b60008060009054906101000a900473ffffffffffffffffffffffffffffffffffffffff16905090565b60045481565b61072e61081e565b73ffffffffffffffffffffffffffffffffffffffff1661074c6106f7565b73ffffffffffffffffffffffffffffffffffffffff16146107a2576040517f08c379a000000000000000000000000000000000000000000000000000000000815260040161079990610e1d565b60405180910390fd5b600073ffffffffffffffffffffffffffffffffffffffff168173ffffffffffffffffffffffffffffffffffffffff161415610812576040517f08c379a000000000000000000000000000000000000000000000000000000000815260040161080990610d9d565b60405180910390fd5b61081b81610826565b50565b600033905090565b60008060009054906101000a900473ffffffffffffffffffffffffffffffffffffffff169050816000806101000a81548173ffffffffffffffffffffffffffffffffffffffff021916908373ffffffffffffffffffffffffffffffffffffffff1602179055508173ffffffffffffffffffffffffffffffffffffffff168173ffffffffffffffffffffffffffffffffffffffff167f8be0079c531659141344cd1fd0a4f28419497f9722a3daafe3b4186f6b6457e060405160405180910390a35050565b6000813590506108f981610f49565b92915050565b60008151905061090e81610f60565b92915050565b60008135905061092381610f77565b92915050565b60008083601f84011261093b57600080fd5b8235905067ffffffffffffffff81111561095457600080fd5b60208301915083600182028301111561096c57600080fd5b9250929050565b60006020828403121561098557600080fd5b6000610993848285016108ea565b91505092915050565b6000602082840312156109ae57600080fd5b60006109bc848285016108ff565b91505092915050565b6000602082840312156109d757600080fd5b60006109e584828501610914565b91505092915050565b600080600060408486031215610a0357600080fd5b600084013567ffffffffffffffff811115610a1d57600080fd5b610a2986828701610929565b93509350506020610a3c86828701610914565b9150509250925092565b6000610a528383610cb1565b60208301905092915050565b610a6781610eb3565b82525050565b6000610a7882610e68565b610a828185610e80565b9350610a8d83610e58565b8060005b83811015610abe578151610aa58882610a46565b9750610ab083610e73565b925050600181019050610a91565b5085935050505092915050565b610ad481610ec5565b82525050565b610ae381610ed1565b82525050565b6000610af58385610e91565b9350610b02838584610f29565b610b0b83610f38565b840190509392505050565b610b1f81610f05565b82525050565b6000610b32602683610ea2565b91507f4f776e61626c653a206e6577206f776e657220697320746865207a65726f206160008301527f64647265737300000000000000000000000000000000000000000000000000006020830152604082019050919050565b6000610b98601883610ea2565b91507f41697264726f7020616c72656164792072656465656d656400000000000000006000830152602082019050919050565b6000610bd8601983610ea2565b91507f50726f6f6620766572696669636174696f6e206661696c6564000000000000006000830152602082019050919050565b6000610c18602183610ea2565b91507f4e756c6c6966696572206973206e6f742077697468696e20746865206669656c60008301527f64000000000000000000000000000000000000000000000000000000000000006020830152604082019050919050565b6000610c7e602083610ea2565b91507f4f776e61626c653a2063616c6c6572206973206e6f7420746865206f776e65726000830152602082019050919050565b610cba81610efb565b82525050565b610cc981610efb565b82525050565b6000602082019050610ce46000830184610a5e565b92915050565b6000604082019050610cff6000830185610a5e565b610d0c6020830184610cc0565b9392505050565b6000602082019050610d286000830184610acb565b92915050565b6000602082019050610d436000830184610ada565b92915050565b60006040820190508181036000830152610d64818587610ae9565b90508181036020830152610d788184610a6d565b9050949350505050565b6000602082019050610d976000830184610b16565b92915050565b60006020820190508181036000830152610db681610b25565b9050919050565b60006020820190508181036000830152610dd681610b8b565b9050919050565b60006020820190508181036000830152610df681610bcb565b9050919050565b60006020820190508181036000830152610e1681610c0b565b9050919050565b60006020820190508181036000830152610e3681610c71565b9050919050565b6000602082019050610e526000830184610cc0565b92915050565b6000819050602082019050919050565b600081519050919050565b6000602082019050919050565b600082825260208201905092915050565b600082825260208201905092915050565b600082825260208201905092915050565b6000610ebe82610edb565b9050919050565b60008115159050919050565b6000819050919050565b600073ffffffffffffffffffffffffffffffffffffffff82169050919050565b6000819050919050565b6000610f1082610f17565b9050919050565b6000610f2282610edb565b9050919050565b82818337600083830152505050565b6000601f19601f8301169050919050565b610f5281610eb3565b8114610f5d57600080fd5b50565b610f6981610ec5565b8114610f7457600080fd5b50565b610f8081610ed1565b8114610f8b57600080fd5b5056fea26469706673582212203ac168149c0953ea67b5df787b77b72e8084d1056228d0b64f67637601bd312664736f6c63430008000033",
  "linkReferences": {},
  "deployedLinkReferences": {}
}